{"abi":[{"type":"constructor","inputs":[{"name":"name_","type":"string","internalType":"string"},{"name":"symbol_","type":"string","internalType":"string"}],"stateMutability":"nonpayable"},{"type":"function","name":"allowance","inputs":[{"name":"","type":"address","internalType":"address"},{"name":"","type":"address","internalType":"address"}],"outputs":[{"name":"","type":"uint256","internalType":"uint256"}],"stateMutability":"view"},{"type":"function","name":"approve","inputs":[{"name":"spender","type":"address","internalType":"address"},{"name":"amount","type":"uint256","internalType":"uint256"}],"outputs":[{"name":"","type":"bool","internalType":"bool"}],"stateMutability":"nonpayable"},{"type":"function","name":"balanceOf","inputs":[{"name":"","type":"address","internalType":"address"}],"outputs":[{"name":"","type":"uint256","internalType":"uint256"}],"stateMutability":"view"},{"type":"function","name":"burn","inputs":[{"name":"amount","type":"uint256","internalType":"uint256"}],"outputs":[],"stateMutability":"nonpayable"},{"type":"function","name":"decimals","inputs":[],"outputs":[{"name":"","type":"uint8","internalType":"uint8"}],"stateMutability":"view"},{"type":"function","name":"mint","inputs":[{"name":"amount","type":"uint256","internalType":"uint256"}],"outputs":[],"stateMutability":"nonpayable"},{"type":"function","name":"name","inputs":[],"outputs":[{"name":"","type":"string","internalType":"string"}],"stateMutability":"view"},{"type":"function","name":"symbol","inputs":[],"outputs":[{"name":"","type":"string","internalType":"string"}],"stateMutability":"view"},{"type":"function","name":"totalSupply","inputs":[],"outputs":[{"name":"","type":"uint256","internalType":"uint256"}],"stateMutability":"view"},{"type":"function","name":"transfer","inputs":[{"name":"recipient","type":"address","internalType":"address"},{"name":"amount","type":"uint256","internalType":"uint256"}],"outputs":[{"name":"","type":"bool","internalType":"bool"}],"stateMutability":"nonpayable"},{"type":"function","name":"transferFrom","inputs":[{"name":"sender","type":"address","internalType":"address"},{"name":"recipient","type":"address","internalType":"address"},{"name":"amount","type":"uint256","internalType":"uint256"}],"outputs":[{"name":"","type":"bool","internalType":"bool"}],"stateMutability":"nonpayable"},{"type":"event","name":"Approval","inputs":[{"name":"owner","type":"address","indexed":true,"internalType":"address"},{"name":"spender","type":"address","indexed":true,"internalType":"address"},{"name":"value","type":"uint256","indexed":false,"internalType":"uint256"}],"anonymous":false},{"type":"event","name":"Transfer","inputs":[{"name":"from","type":"address","indexed":true,"internalType":"address"},{"name":"to","type":"address","indexed":true,"internalType":"address"},{"name":"value","type":"uint256","indexed":false,"internalType":"uint256"}],"anonymous":false}],"bytecode":{"object":"0x60806040526005805460ff1916601217905534801561001d57600080fd5b506040516109d03803806109d083398101604081905261003c9161011b565b60036100488382610209565b5060046100558282610209565b5050506102c8565b634e487b7160e01b600052604160045260246000fd5b600082601f83011261008457600080fd5b81516001600160401b038082111561009e5761009e61005d565b604051601f8301601f19908116603f011681019082821181831017156100c6576100c661005d565b81604052838152602092508660208588010111156100e357600080fd5b600091505b8382101561010557858201830151818301840152908201906100e8565b6000602085830101528094505050505092915050565b6000806040838503121561012e57600080fd5b82516001600160401b038082111561014557600080fd5b61015186838701610073565b9350602085015191508082111561016757600080fd5b5061017485828601610073565b9150509250929050565b600181811c9082168061019257607f821691505b6020821081036101b257634e487b7160e01b600052602260045260246000fd5b50919050565b601f821115610204576000816000526020600020601f850160051c810160208610156101e15750805b601f850160051c820191505b81811015610200578281556001016101ed565b5050505b505050565b81516001600160401b038111156102225761022261005d565b61023681610230845461017e565b846101b8565b602080601f83116001811461026b57600084156102535750858301515b600019600386901b1c1916600185901b178555610200565b600085815260208120601f198616915b8281101561029a5788860151825594840194600190910190840161027b565b50858210156102b85787850151600019600388901b60f8161c191681555b5050505050600190811b01905550565b6106f9806102d76000396000f3fe608060405234801561001057600080fd5b50600436106100a95760003560e01c806342966c681161007157806342966c681461013857806370a082311461014d57806395d89b411461016d578063a0712d6814610175578063a9059cbb14610188578063dd62ed3e1461019b57600080fd5b806306fdde03146100ae578063095ea7b3146100cc57806318160ddd146100ef57806323b872dd14610106578063313ce56714610119575b600080fd5b6100b66101c6565b6040516100c391906104ee565b60405180910390f35b6100df6100da366004610559565b610254565b60405190151581526020016100c3565b6100f860025481565b6040519081526020016100c3565b6100df610114366004610583565b6102c1565b6005546101269060ff1681565b60405160ff90911681526020016100c3565b61014b6101463660046105bf565b61039c565b005b6100f861015b3660046105d8565b60006020819052908152604090205481565b6100b6610403565b61014b6101833660046105bf565b610410565b6100df610196366004610559565b610470565b6100f86101a93660046105fa565b600160209081526000928352604080842090915290825290205481565b600380546101d39061062d565b80601f01602080910402602001604051908101604052809291908181526020018280546101ff9061062d565b801561024c5780601f106102215761010080835404028352916020019161024c565b820191906000526020600020905b81548152906001019060200180831161022f57829003601f168201915b505050505081565b3360008181526001602090815260408083206001600160a01b038716808552925280832085905551919290917f8c5be1e5ebec7d5bd14f71427d1e84f3dd0314c0f7b2291e5b200ac8c7c3b925906102af9086815260200190565b60405180910390a35060015b92915050565b6001600160a01b03831660009081526001602090815260408083203384529091528120805483919083906102f690849061067d565b90915550506001600160a01b0384166000908152602081905260408120805484929061032390849061067d565b90915550506001600160a01b03831660009081526020819052604081208054849290610350908490610690565b92505081905550826001600160a01b0316846001600160a01b03166000805160206106a48339815191528460405161038a91815260200190565b60405180910390a35060019392505050565b33600090815260208190526040812080548392906103bb90849061067d565b9250508190555080600260008282546103d4919061067d565b909155505060405181815260009033906000805160206106a4833981519152906020015b60405180910390a350565b600480546101d39061062d565b336000908152602081905260408120805483929061042f908490610690565b9250508190555080600260008282546104489190610690565b909155505060405181815233906000906000805160206106a4833981519152906020016103f8565b3360009081526020819052604081208054839190839061049190849061067d565b90915550506001600160a01b038316600090815260208190526040812080548492906104be908490610690565b90915550506040518281526001600160a01b0384169033906000805160206106a4833981519152906020016102af565b60006020808352835180602085015260005b8181101561051c57858101830151858201604001528201610500565b506000604082860101526040601f19601f8301168501019250505092915050565b80356001600160a01b038116811461055457600080fd5b919050565b6000806040838503121561056c57600080fd5b6105758361053d565b946020939093013593505050565b60008060006060848603121561059857600080fd5b6105a18461053d565b92506105af6020850161053d565b9150604084013590509250925092565b6000602082840312156105d157600080fd5b5035919050565b6000602082840312156105ea57600080fd5b6105f38261053d565b9392505050565b6000806040838503121561060d57600080fd5b6106168361053d565b91506106246020840161053d565b90509250929050565b600181811c9082168061064157607f821691505b60208210810361066157634e487b7160e01b600052602260045260246000fd5b50919050565b634e487b7160e01b600052601160045260246000fd5b818103818111156102bb576102bb610667565b808201808211156102bb576102bb61066756feddf252ad1be2c89b69c2b068fc378daa952ba7f163c4a11628f55a4df523b3efa264697066735822122041e1657d68d4c9c71b9aabcef39c775aea1f4ed3b5ef73fdec46c349a7300b9c64736f6c63430008190033","linkReferences":{}},"methodIdentifiers":{"allowance(address,address)":"dd62ed3e","approve(address,uint256)":"095ea7b3","balanceOf(address)":"70a08231","burn(uint256)":"42966c68","decimals()":"313ce567","mint(uint256)":"a0712d68","name()":"06fdde03","symbol()":"95d89b41","totalSupply()":"18160ddd","transfer(address,uint256)":"a9059cbb","transferFrom(address,address,uint256)":"23b872dd"},"id":21}