{"abi":[{"type":"constructor","inputs":[],"stateMutability":"nonpayable"},{"type":"function","name":"balanceOf","inputs":[{"name":"account","type":"address","internalType":"address"},{"name":"id","type":"uint256","internalType":"uint256"}],"outputs":[{"name":"","type":"uint256","internalType":"uint256"}],"stateMutability":"view"},{"type":"function","name":"balanceOfBatch","inputs":[{"name":"accounts","type":"address[]","internalType":"address[]"},{"name":"ids","type":"uint256[]","internalType":"uint256[]"}],"outputs":[{"name":"","type":"uint256[]","internalType":"uint256[]"}],"stateMutability":"view"},{"type":"function","name":"isApprovedForAll","inputs":[{"name":"account","type":"address","internalType":"address"},{"name":"operator","type":"address","internalType":"address"}],"outputs":[{"name":"","type":"bool","internalType":"bool"}],"stateMutability":"view"},{"type":"function","name":"mint","inputs":[{"name":"to","type":"address","internalType":"address"},{"name":"id","type":"uint256","internalType":"uint256"},{"name":"amount","type":"uint256","internalType":"uint256"}],"outputs":[],"stateMutability":"nonpayable"},{"type":"function","name":"mintBatch","inputs":[{"name":"to","type":"address","internalType":"address"},{"name":"ids","type":"uint256[]","internalType":"uint256[]"},{"name":"amounts","type":"uint256[]","internalType":"uint256[]"}],"outputs":[],"stateMutability":"nonpayable"},{"type":"function","name":"name","inputs":[],"outputs":[{"name":"","type":"string","internalType":"string"}],"stateMutability":"view"},{"type":"function","name":"safeBatchTransferFrom","inputs":[{"name":"from","type":"address","internalType":"address"},{"name":"to","type":"address","internalType":"address"},{"name":"ids","type":"uint256[]","internalType":"uint256[]"},{"name":"amounts","type":"uint256[]","internalType":"uint256[]"},{"name":"data","type":"bytes","internalType":"bytes"}],"outputs":[],"stateMutability":"nonpayable"},{"type":"function","name":"safeTransferFrom","inputs":[{"name":"from","type":"address","internalType":"address"},{"name":"to","type":"address","internalType":"address"},{"name":"id","type":"uint256","internalType":"uint256"},{"name":"amount","type":"uint256","internalType":"uint256"},{"name":"data","type":"bytes","internalType":"bytes"}],"outputs":[],"stateMutability":"nonpayable"},{"type":"function","name":"setApprovalForAll","inputs":[{"name":"operator","type":"address","internalType":"address"},{"name":"approved","type":"bool","internalType":"bool"}],"outputs":[],"stateMutability":"nonpayable"},{"type":"function","name":"supportsInterface","inputs":[{"name":"interfaceId","type":"bytes4","internalType":"bytes4"}],"outputs":[{"name":"","type":"bool","internalType":"bool"}],"stateMutability":"view"},{"type":"function","name":"symbol","inputs":[],"outputs":[{"name":"","type":"string","internalType":"string"}],"stateMutability":"view"},{"type":"function","name":"uri","inputs":[{"name":"id","type":"uint256","internalType":"uint256"}],"outputs":[{"name":"","type":"string","internalType":"string"}],"stateMutability":"view"},{"type":"event","name":"ApprovalForAll","inputs":[{"name":"account","type":"address","indexed":true,"internalType":"address"},{"name":"operator","type":"address","indexed":true,"internalType":"address"},{"name":"approved","type":"bool","indexed":false,"internalType":"bool"}],"anonymous":false},{"type":"event","name":"TransferBatch","inputs":[{"name":"operator","type":"address","indexed":true,"internalType":"address"},{"name":"from","type":"address","indexed":true,"internalType":"address"},{"name":"to","type":"address","indexed":true,"internalType":"address"},{"name":"ids","type":"uint256[]","indexed":false,"internalType":"uint256[]"},{"name":"values","type":"uint256[]","indexed":false,"internalType":"uint256[]"}],"anonymous":false},{"type":"event","name":"TransferSingle","inputs":[{"name":"operator","type":"address","indexed":true,"internalType":"address"},{"name":"from","type":"address","indexed":true,"internalType":"address"},{"name":"to","type":"address","indexed":true,"internalType":"address"},{"name":"id","type":"uint256","indexed":false,"internalType":"uint256"},{"name":"value","type":"uint256","indexed":false,"internalType":"uint256"}],"anonymous":false},{"type":"event","name":"URI","inputs":[{"name":"value","type":"string","indexed":false,"internalType":"string"},{"name":"id","type":"uint256","indexed":true,"internalType":"uint256"}],"anonymous":false}],"bytecode":{"object":"0x608060405234801561001057600080fd5b50604080518082018252600880825267424159433131353560c01b602080840182905284518086019095529184529083015290600061004f8382610105565b50600161005c8282610105565b5050506101c4565b634e487b7160e01b600052604160045260246000fd5b600181811c9082168061008e57607f821691505b6020821081036100ae57634e487b7160e01b600052602260045260246000fd5b50919050565b601f821115610100576000816000526020600020601f850160051c810160208610156100dd5750805b601f850160051c820191505b818110156100fc578281556001016100e9565b5050505b505050565b81516001600160401b0381111561011e5761011e610064565b6101328161012c845461007a565b846100b4565b602080601f831160018114610167576000841561014f5750858301515b600019600386901b1c1916600185901b1785556100fc565b600085815260208120601f198616915b8281101561019657888601518255948401946001909101908401610177565b50858210156101b45787850151600019600388901b60f8161c191681555b5050505050600190811b01905550565b61195b806101d36000396000f3fe608060405234801561001057600080fd5b50600436106100b35760003560e01c80634e1273f4116100715780634e1273f41461015157806395d89b4114610171578063a22cb46514610179578063d81d0a151461018c578063e985e9c51461019f578063f242432a146101b257600080fd5b8062fdd58e146100b857806301ffc9a7146100de57806306fdde03146101015780630e89341c14610116578063156e29f6146101295780632eb2c2d61461013e575b600080fd5b6100cb6100c6366004610f2e565b6101c5565b6040519081526020015b60405180910390f35b6100f16100ec366004610f71565b610260565b60405190151581526020016100d5565b6101096102b1565b6040516100d59190610fde565b610109610124366004610ff1565b61033f565b61013c61013736600461100a565b61039d565b005b61013c61014c36600461118e565b6103fc565b61016461015f366004611238565b6105cc565b6040516100d5919061133f565b6101096106ee565b61013c610187366004611352565b6106fb565b61013c61019a36600461138e565b6107d1565b6100f16101ad366004611402565b610859565b61013c6101c0366004611435565b610887565b60006001600160a01b0383166102355760405162461bcd60e51b815260206004820152602a60248201527f455243313135353a2061646472657373207a65726f206973206e6f742061207660448201526930b634b21037bbb732b960b11b60648201526084015b60405180910390fd5b5060008181526002602090815260408083206001600160a01b03861684529091529020545b92915050565b60006001600160e01b03198216636cdb3d1360e11b148061029157506001600160e01b031982166303a24d0760e21b145b8061025a57506001600160e01b031982166301ffc9a760e01b1492915050565b600080546102be9061149a565b80601f01602080910402602001604051908101604052809291908181526020018280546102ea9061149a565b80156103375780601f1061030c57610100808354040283529160200191610337565b820191906000526020600020905b81548152906001019060200180831161031a57829003601f168201915b505050505081565b6060600061034b6109d1565b9050600081511161036b5760405180602001604052806000815250610396565b80610375846109f1565b6040516020016103869291906114d4565b6040516020818303038152906040525b9392505050565b61271082106103dc5760405162461bcd60e51b815260206004820152600b60248201526a6964206f766572666c6f7760a81b604482015260640161022c565b6103f783838360405180602001604052806000815250610afa565b505050565b336001600160a01b03861681148061041957506104198682610859565b6104355760405162461bcd60e51b815260040161022c90611503565b82518451146104565760405162461bcd60e51b815260040161022c90611552565b6001600160a01b03851661047c5760405162461bcd60e51b815260040161022c9061159a565b60005b845181101561055e57600085828151811061049c5761049c6115df565b6020026020010151905060008583815181106104ba576104ba6115df565b60209081029190910181015160008481526002835260408082206001600160a01b038e16835290935291909120549091508181101561050b5760405162461bcd60e51b815260040161022c906115f5565b60008381526002602090815260408083206001600160a01b038e8116855292528083208585039055908b1682528120805484929061054a908490611655565b90915550506001909301925061047f915050565b50846001600160a01b0316866001600160a01b0316826001600160a01b03167f4a39dc06d4c0dbc64b70af90fd698a233a518aa5d07e595d983b8c0526c8f7fb87876040516105ae929190611668565b60405180910390a46105c4818787878787610bbb565b505050505050565b606081518351146106315760405162461bcd60e51b815260206004820152602960248201527f455243313135353a206163636f756e747320616e6420696473206c656e677468604482015268040dad2e6dac2e8c6d60bb1b606482015260840161022c565b6000835167ffffffffffffffff81111561064d5761064d61103d565b604051908082528060200260200182016040528015610676578160200160208202803683370190505b50905060005b84518110156106e6576106c185828151811061069a5761069a6115df565b60200260200101518583815181106106b4576106b46115df565b60200260200101516101c5565b8282815181106106d3576106d36115df565b602090810291909101015260010161067c565b509392505050565b600180546102be9061149a565b6001600160a01b03821633036107655760405162461bcd60e51b815260206004820152602960248201527f455243313135353a2073657474696e6720617070726f76616c20737461747573604482015268103337b91039b2b63360b91b606482015260840161022c565b3360008181526003602090815260408083206001600160a01b03871680855290835292819020805460ff191686151590811790915590519081529192917f17307eab39ab6107e8899845ad3d59bd9653f200f220920489ca2b5937696c31910160405180910390a35050565b60005b825181101561083d576127108382815181106107f2576107f26115df565b6020026020010151106108355760405162461bcd60e51b815260206004820152600b60248201526a6964206f766572666c6f7760a81b604482015260640161022c565b6001016107d4565b506103f783838360405180602001604052806000815250610d16565b6001600160a01b03918216600090815260036020908152604080832093909416825291909152205460ff1690565b336001600160a01b0386168114806108a457506108a48682610859565b6108c05760405162461bcd60e51b815260040161022c90611503565b6001600160a01b0385166108e65760405162461bcd60e51b815260040161022c9061159a565b60008481526002602090815260408083206001600160a01b038a168452909152902054838110156109295760405162461bcd60e51b815260040161022c906115f5565b60008581526002602090815260408083206001600160a01b038b8116855292528083208785039055908816825281208054869290610968908490611655565b909155505060408051868152602081018690526001600160a01b03808916928a821692918616917fc3d58168c5ae7397731d063d5bbf3d657854427343f4c083240f7aacaa2d0f62910160405180910390a46109c8828888888888610e57565b50505050505050565b60606040518060600160405280603681526020016118f060369139905090565b606081600003610a185750506040805180820190915260018152600360fc1b602082015290565b8160005b8115610a425780610a2c81611696565b9150610a3b9050600a836116c5565b9150610a1c565b60008167ffffffffffffffff811115610a5d57610a5d61103d565b6040519080825280601f01601f191660200182016040528015610a87576020820181803683370190505b5090505b8415610af257610a9c6001836116d9565b9150610aa9600a866116ec565b610ab4906030611655565b60f81b818381518110610ac957610ac96115df565b60200101906001600160f81b031916908160001a905350610aeb600a866116c5565b9450610a8b565b949350505050565b6001600160a01b038416610b205760405162461bcd60e51b815260040161022c90611700565b60008381526002602090815260408083206001600160a01b0388168452909152812080543392859291610b54908490611655565b909155505060408051858152602081018590526001600160a01b0380881692600092918516917fc3d58168c5ae7397731d063d5bbf3d657854427343f4c083240f7aacaa2d0f62910160405180910390a4610bb481600087878787610e57565b5050505050565b6001600160a01b0384163b156105c45760405163bc197c8160e01b81526001600160a01b0385169063bc197c8190610bff9089908990889088908890600401611741565b6020604051808303816000875af1925050508015610c3a575060408051601f3d908101601f19168201909252610c379181019061179f565b60015b610ce657610c466117bc565b806308c379a003610c7f5750610c5a6117d8565b80610c655750610c81565b8060405162461bcd60e51b815260040161022c9190610fde565b505b60405162461bcd60e51b815260206004820152603460248201527f455243313135353a207472616e7366657220746f206e6f6e2d455243313135356044820152732932b1b2b4bb32b91034b6b83632b6b2b73a32b960611b606482015260840161022c565b6001600160e01b0319811663bc197c8160e01b146109c85760405162461bcd60e51b815260040161022c90611862565b6001600160a01b038416610d3c5760405162461bcd60e51b815260040161022c90611700565b8151835114610d5d5760405162461bcd60e51b815260040161022c90611552565b3360005b8451811015610def57838181518110610d7c57610d7c6115df565b602002602001015160026000878481518110610d9a57610d9a6115df565b602002602001015181526020019081526020016000206000886001600160a01b03166001600160a01b031681526020019081526020016000206000828254610de29190611655565b9091555050600101610d61565b50846001600160a01b031660006001600160a01b0316826001600160a01b03167f4a39dc06d4c0dbc64b70af90fd698a233a518aa5d07e595d983b8c0526c8f7fb8787604051610e40929190611668565b60405180910390a4610bb481600087878787610bbb565b6001600160a01b0384163b156105c45760405163f23a6e6160e01b81526001600160a01b0385169063f23a6e6190610e9b90899089908890889088906004016118aa565b6020604051808303816000875af1925050508015610ed6575060408051601f3d908101601f19168201909252610ed39181019061179f565b60015b610ee257610c466117bc565b6001600160e01b0319811663f23a6e6160e01b146109c85760405162461bcd60e51b815260040161022c90611862565b80356001600160a01b0381168114610f2957600080fd5b919050565b60008060408385031215610f4157600080fd5b610f4a83610f12565b946020939093013593505050565b6001600160e01b031981168114610f6e57600080fd5b50565b600060208284031215610f8357600080fd5b813561039681610f58565b60005b83811015610fa9578181015183820152602001610f91565b50506000910152565b60008151808452610fca816020860160208601610f8e565b601f01601f19169290920160200192915050565b6020815260006103966020830184610fb2565b60006020828403121561100357600080fd5b5035919050565b60008060006060848603121561101f57600080fd5b61102884610f12565b95602085013595506040909401359392505050565b634e487b7160e01b600052604160045260246000fd5b601f8201601f1916810167ffffffffffffffff811182821017156110795761107961103d565b6040525050565b600067ffffffffffffffff82111561109a5761109a61103d565b5060051b60200190565b600082601f8301126110b557600080fd5b813560206110c282611080565b6040516110cf8282611053565b80915083815260208101915060208460051b8701019350868411156110f357600080fd5b602086015b8481101561110f57803583529183019183016110f8565b509695505050505050565b600082601f83011261112b57600080fd5b813567ffffffffffffffff8111156111455761114561103d565b60405161115c601f8301601f191660200182611053565b81815284602083860101111561117157600080fd5b816020850160208301376000918101602001919091529392505050565b600080600080600060a086880312156111a657600080fd5b6111af86610f12565b94506111bd60208701610f12565b9350604086013567ffffffffffffffff808211156111da57600080fd5b6111e689838a016110a4565b945060608801359150808211156111fc57600080fd5b61120889838a016110a4565b9350608088013591508082111561121e57600080fd5b5061122b8882890161111a565b9150509295509295909350565b6000806040838503121561124b57600080fd5b823567ffffffffffffffff8082111561126357600080fd5b818501915085601f83011261127757600080fd5b8135602061128482611080565b6040516112918282611053565b83815260059390931b85018201928281019150898411156112b157600080fd5b948201945b838610156112d6576112c786610f12565b825294820194908201906112b6565b965050860135925050808211156112ec57600080fd5b506112f9858286016110a4565b9150509250929050565b60008151808452602080850194506020840160005b8381101561133457815187529582019590820190600101611318565b509495945050505050565b6020815260006103966020830184611303565b6000806040838503121561136557600080fd5b61136e83610f12565b91506020830135801515811461138357600080fd5b809150509250929050565b6000806000606084860312156113a357600080fd5b6113ac84610f12565b9250602084013567ffffffffffffffff808211156113c957600080fd5b6113d5878388016110a4565b935060408601359150808211156113eb57600080fd5b506113f8868287016110a4565b9150509250925092565b6000806040838503121561141557600080fd5b61141e83610f12565b915061142c60208401610f12565b90509250929050565b600080600080600060a0868803121561144d57600080fd5b61145686610f12565b945061146460208701610f12565b93506040860135925060608601359150608086013567ffffffffffffffff81111561148e57600080fd5b61122b8882890161111a565b600181811c908216806114ae57607f821691505b6020821081036114ce57634e487b7160e01b600052602260045260246000fd5b50919050565b600083516114e6818460208801610f8e565b8351908301906114fa818360208801610f8e565b01949350505050565b6020808252602f908201527f455243313135353a2063616c6c6572206973206e6f7420746f6b656e206f776e60408201526e195c881b9bdc88185c1c1c9bdd9959608a1b606082015260800190565b60208082526028908201527f455243313135353a2069647320616e6420616d6f756e7473206c656e677468206040820152670dad2e6dac2e8c6d60c31b606082015260800190565b60208082526025908201527f455243313135353a207472616e7366657220746f20746865207a65726f206164604082015264647265737360d81b606082015260800190565b634e487b7160e01b600052603260045260246000fd5b6020808252602a908201527f455243313135353a20696e73756666696369656e742062616c616e636520666f60408201526939103a3930b739b332b960b11b606082015260800190565b634e487b7160e01b600052601160045260246000fd5b8082018082111561025a5761025a61163f565b60408152600061167b6040830185611303565b828103602084015261168d8185611303565b95945050505050565b6000600182016116a8576116a861163f565b5060010190565b634e487b7160e01b600052601260045260246000fd5b6000826116d4576116d46116af565b500490565b8181038181111561025a5761025a61163f565b6000826116fb576116fb6116af565b500690565b60208082526021908201527f455243313135353a206d696e7420746f20746865207a65726f206164647265736040820152607360f81b606082015260800190565b6001600160a01b0386811682528516602082015260a06040820181905260009061176d90830186611303565b828103606084015261177f8186611303565b905082810360808401526117938185610fb2565b98975050505050505050565b6000602082840312156117b157600080fd5b815161039681610f58565b600060033d11156117d55760046000803e5060005160e01c5b90565b600060443d10156117e65790565b6040516003193d81016004833e81513d67ffffffffffffffff816024840111818411171561181657505050505090565b828501915081518181111561182e5750505050505090565b843d87010160208285010111156118485750505050505090565b61185760208286010187611053565b509095945050505050565b60208082526028908201527f455243313135353a204552433131353552656365697665722072656a656374656040820152676420746f6b656e7360c01b606082015260800190565b6001600160a01b03868116825285166020820152604081018490526060810183905260a0608082018190526000906118e490830184610fb2565b97965050505050505056fe697066733a2f2f516d65536a53696e4870506e6d586d73704d6a776958794e367a533445397a63636172694752336a7863615774712fa2646970667358221220d16c9c65e2b2be86a918f7a14779f07de9f17464b96725eb331edc620b98712264736f6c63430008190033","linkReferences":{}},"methodIdentifiers":{"balanceOf(address,uint256)":"00fdd58e","balanceOfBatch(address[],uint256[])":"4e1273f4","isApprovedForAll(address,address)":"e985e9c5","mint(address,uint256,uint256)":"156e29f6","mintBatch(address,uint256[],uint256[])":"d81d0a15","name()":"06fdde03","safeBatchTransferFrom(address,address,uint256[],uint256[],bytes)":"2eb2c2d6","safeTransferFrom(address,address,uint256,uint256,bytes)":"f242432a","setApprovalForAll(address,bool)":"a22cb465","supportsInterface(bytes4)":"01ffc9a7","symbol()":"95d89b41","uri(uint256)":"0e89341c"},"id":21}