{"abi":[{"type":"constructor","inputs":[{"name":"name","type":"string","internalType":"string"},{"name":"symbol","type":"string","internalType":"string"},{"name":"merkleroot","type":"bytes32","internalType":"bytes32"}],"stateMutability":"nonpayable"},{"type":"function","name":"approve","inputs":[{"name":"to","type":"address","internalType":"address"},{"name":"tokenId","type":"uint256","internalType":"uint256"}],"outputs":[],"stateMutability":"nonpayable"},{"type":"function","name":"balanceOf","inputs":[{"name":"owner","type":"address","internalType":"address"}],"outputs":[{"name":"","type":"uint256","internalType":"uint256"}],"stateMutability":"view"},{"type":"function","name":"getApproved","inputs":[{"name":"tokenId","type":"uint256","internalType":"uint256"}],"outputs":[{"name":"","type":"address","internalType":"address"}],"stateMutability":"view"},{"type":"function","name":"isApprovedForAll","inputs":[{"name":"owner","type":"address","internalType":"address"},{"name":"operator","type":"address","internalType":"address"}],"outputs":[{"name":"","type":"bool","internalType":"bool"}],"stateMutability":"view"},{"type":"function","name":"mint","inputs":[{"name":"account","type":"address","internalType":"address"},{"name":"tokenId","type":"uint256","internalType":"uint256"},{"name":"proof","type":"bytes32[]","internalType":"bytes32[]"}],"outputs":[],"stateMutability":"nonpayable"},{"type":"function","name":"mintedAddress","inputs":[{"name":"","type":"address","internalType":"address"}],"outputs":[{"name":"","type":"bool","internalType":"bool"}],"stateMutability":"view"},{"type":"function","name":"name","inputs":[],"outputs":[{"name":"","type":"string","internalType":"string"}],"stateMutability":"view"},{"type":"function","name":"ownerOf","inputs":[{"name":"tokenId","type":"uint256","internalType":"uint256"}],"outputs":[{"name":"owner","type":"address","internalType":"address"}],"stateMutability":"view"},{"type":"function","name":"root","inputs":[],"outputs":[{"name":"","type":"bytes32","internalType":"bytes32"}],"stateMutability":"view"},{"type":"function","name":"safeTransferFrom","inputs":[{"name":"from","type":"address","internalType":"address"},{"name":"to","type":"address","internalType":"address"},{"name":"tokenId","type":"uint256","internalType":"uint256"}],"outputs":[],"stateMutability":"nonpayable"},{"type":"function","name":"safeTransferFrom","inputs":[{"name":"from","type":"address","internalType":"address"},{"name":"to","type":"address","internalType":"address"},{"name":"tokenId","type":"uint256","internalType":"uint256"},{"name":"_data","type":"bytes","internalType":"bytes"}],"outputs":[],"stateMutability":"nonpayable"},{"type":"function","name":"setApprovalForAll","inputs":[{"name":"operator","type":"address","internalType":"address"},{"name":"approved","type":"bool","internalType":"bool"}],"outputs":[],"stateMutability":"nonpayable"},{"type":"function","name":"supportsInterface","inputs":[{"name":"interfaceId","type":"bytes4","internalType":"bytes4"}],"outputs":[{"name":"","type":"bool","internalType":"bool"}],"stateMutability":"pure"},{"type":"function","name":"symbol","inputs":[],"outputs":[{"name":"","type":"string","internalType":"string"}],"stateMutability":"view"},{"type":"function","name":"tokenURI","inputs":[{"name":"tokenId","type":"uint256","internalType":"uint256"}],"outputs":[{"name":"","type":"string","internalType":"string"}],"stateMutability":"view"},{"type":"function","name":"transferFrom","inputs":[{"name":"from","type":"address","internalType":"address"},{"name":"to","type":"address","internalType":"address"},{"name":"tokenId","type":"uint256","internalType":"uint256"}],"outputs":[],"stateMutability":"nonpayable"},{"type":"event","name":"Approval","inputs":[{"name":"owner","type":"address","indexed":true,"internalType":"address"},{"name":"approved","type":"address","indexed":true,"internalType":"address"},{"name":"tokenId","type":"uint256","indexed":true,"internalType":"uint256"}],"anonymous":false},{"type":"event","name":"ApprovalForAll","inputs":[{"name":"owner","type":"address","indexed":true,"internalType":"address"},{"name":"operator","type":"address","indexed":true,"internalType":"address"},{"name":"approved","type":"bool","indexed":false,"internalType":"bool"}],"anonymous":false},{"type":"event","name":"Transfer","inputs":[{"name":"from","type":"address","indexed":true,"internalType":"address"},{"name":"to","type":"address","indexed":true,"internalType":"address"},{"name":"tokenId","type":"uint256","indexed":true,"internalType":"uint256"}],"anonymous":false}],"bytecode":{"object":"0x60a060405234801561001057600080fd5b5060405161170e38038061170e83398101604081905261002f91610116565b8282600061003d838261020d565b50600161004a828261020d565b505050608052506102cc9050565b634e487b7160e01b600052604160045260246000fd5b600082601f83011261007f57600080fd5b81516001600160401b038082111561009957610099610058565b604051601f8301601f19908116603f011681019082821181831017156100c1576100c1610058565b81604052838152602092508660208588010111156100de57600080fd5b600091505b8382101561010057858201830151818301840152908201906100e3565b6000602085830101528094505050505092915050565b60008060006060848603121561012b57600080fd5b83516001600160401b038082111561014257600080fd5b61014e8783880161006e565b9450602086015191508082111561016457600080fd5b506101718682870161006e565b925050604084015190509250925092565b600181811c9082168061019657607f821691505b6020821081036101b657634e487b7160e01b600052602260045260246000fd5b50919050565b601f821115610208576000816000526020600020601f850160051c810160208610156101e55750805b601f850160051c820191505b81811015610204578281556001016101f1565b5050505b505050565b81516001600160401b0381111561022657610226610058565b61023a816102348454610182565b846101bc565b602080601f83116001811461026f57600084156102575750858301515b600019600386901b1c1916600185901b178555610204565b600085815260208120601f198616915b8281101561029e5788860151825594840194600190910190840161027f565b50858210156102bc5787850151600019600388901b60f8161c191681555b5050505050600190811b01905550565b6080516114206102ee600039600081816102940152610b3601526114206000f3fe608060405234801561001057600080fd5b50600436106101005760003560e01c8063641ce14011610097578063b88d4fde11610066578063b88d4fde1461022d578063c87b56dd14610240578063e985e9c514610253578063ebf0c7171461028f57600080fd5b8063641ce140146101de57806370a08231146101f157806395d89b4114610212578063a22cb4651461021a57600080fd5b806323b872dd116100d357806323b872dd1461018257806342842e0e14610195578063630303c6146101a85780636352211e146101cb57600080fd5b806301ffc9a71461010557806306fdde031461012d578063081812fc14610142578063095ea7b31461016d575b600080fd5b610118610113366004610f62565b6102b6565b60405190151581526020015b60405180910390f35b610135610308565b6040516101249190610fcf565b610155610150366004610fe2565b610396565b6040516001600160a01b039091168152602001610124565b61018061017b366004611012565b610411565b005b61018061019036600461103c565b6104b6565b6101806101a336600461103c565b610525565b6101186101b6366004611078565b60066020526000908152604090205460ff1681565b6101556101d9366004610fe2565b610540565b6101806101ec366004611093565b6105a0565b6102046101ff366004611078565b6106e0565b604051908152602001610124565b61013561074b565b61018061022836600461111d565b610758565b61018061023b36600461116f565b6107c4565b61013561024e366004610fe2565b610835565b61011861026136600461124b565b6001600160a01b03918216600090815260056020908152604080832093909416825291909152205460ff1690565b6102047f000000000000000000000000000000000000000000000000000000000000000081565b60006001600160e01b031982166380ac58cd60e01b14806102e757506001600160e01b031982166301ffc9a760e01b145b8061030257506001600160e01b03198216635b5e139f60e01b145b92915050565b600080546103159061127e565b80601f01602080910402602001604051908101604052809291908181526020018280546103419061127e565b801561038e5780601f106103635761010080835404028352916020019161038e565b820191906000526020600020905b81548152906001019060200180831161037157829003601f168201915b505050505081565b6000818152600260205260408120546001600160a01b03166103f55760405162461bcd60e51b81526020600482015260136024820152721d1bdad95b88191bd95cdb89dd08195e1a5cdd606a1b60448201526064015b60405180910390fd5b506000908152600460205260409020546001600160a01b031690565b6000818152600260205260409020546001600160a01b03163381148061045a57506001600160a01b038116600090815260056020908152604080832033845290915290205460ff165b6104a65760405162461bcd60e51b815260206004820152601e60248201527f6e6f74206f776e6572206e6f7220617070726f76656420666f7220616c6c000060448201526064016103ec565b6104b18184846108f7565b505050565b60006104c182610540565b90506104ce813384610953565b6105135760405162461bcd60e51b81526020600482015260166024820152751b9bdd081bdddb995c881b9bdc88185c1c1c9bdd995960521b60448201526064016103ec565b61051f818585856109c6565b50505050565b6104b1838383604051806020016040528060008152506107c4565b6000818152600260205260409020546001600160a01b03168061059b5760405162461bcd60e51b81526020600482015260136024820152721d1bdad95b88191bd95cdb89dd08195e1a5cdd606a1b60448201526064016103ec565b919050565b60408051606086901b6bffffffffffffffffffffffff1916602080830191909152825160148184030181526034909201909252805191012061061590838380806020026020016040519081016040528093929190818152602001838360200280828437600092019190915250610b2e92505050565b6106585760405162461bcd60e51b815260206004820152601460248201527324b73b30b634b21036b2b935b63290383937b7b360611b60448201526064016103ec565b6001600160a01b03841660009081526006602052604090205460ff16156106b35760405162461bcd60e51b815260206004820152600f60248201526e416c7265616479206d696e7465642160881b60448201526064016103ec565b6001600160a01b0384166000908152600660205260409020805460ff1916600117905561051f8484610b5b565b60006001600160a01b03821661072f5760405162461bcd60e51b81526020600482015260146024820152736f776e6572203d207a65726f206164647265737360601b60448201526064016103ec565b506001600160a01b031660009081526003602052604090205490565b600180546103159061127e565b3360008181526005602090815260408083206001600160a01b03871680855290835292819020805460ff191686151590811790915590519081529192917f17307eab39ab6107e8899845ad3d59bd9653f200f220920489ca2b5937696c31910160405180910390a35050565b60006107cf83610540565b90506107dc813385610953565b6108215760405162461bcd60e51b81526020600482015260166024820152751b9bdd081bdddb995c881b9bdc88185c1c1c9bdd995960521b60448201526064016103ec565b61082e8186868686610c8b565b5050505050565b6000818152600260205260409020546060906001600160a01b031661088e5760405162461bcd60e51b815260206004820152600f60248201526e151bdad95b88139bdd08115e1a5cdd608a1b60448201526064016103ec565b60006108a560408051602081019091526000815290565b905060008151116108c557604051806020016040528060008152506108f0565b806108cf84610ce4565b6040516020016108e09291906112b8565b6040516020818303038152906040525b9392505050565b60008181526004602052604080822080546001600160a01b0319166001600160a01b0386811691821790925591518493918716917f8c5be1e5ebec7d5bd14f71427d1e84f3dd0314c0f7b2291e5b200ac8c7c3b92591a4505050565b6000836001600160a01b0316836001600160a01b0316148061098e57506000828152600460205260409020546001600160a01b038481169116145b806109be57506001600160a01b0380851660009081526005602090815260408083209387168352929052205460ff165b949350505050565b836001600160a01b0316836001600160a01b031614610a135760405162461bcd60e51b81526020600482015260096024820152683737ba1037bbb732b960b91b60448201526064016103ec565b6001600160a01b038216610a695760405162461bcd60e51b815260206004820152601c60248201527f7472616e7366657220746f20746865207a65726f20616464726573730000000060448201526064016103ec565b610a75846000836108f7565b6001600160a01b0383166000908152600360205260408120805460019290610a9e9084906112fd565b90915550506001600160a01b0382166000908152600360205260408120805460019290610acc908490611310565b909155505060008181526002602052604080822080546001600160a01b0319166001600160a01b0386811691821790925591518493918716917fddf252ad1be2c89b69c2b068fc378daa952ba7f163c4a11628f55a4df523b3ef91a450505050565b60006108f0827f000000000000000000000000000000000000000000000000000000000000000085610de5565b6001600160a01b038216610ba85760405162461bcd60e51b81526020600482015260146024820152736d696e7420746f207a65726f206164647265737360601b60448201526064016103ec565b6000818152600260205260409020546001600160a01b031615610c045760405162461bcd60e51b81526020600482015260146024820152731d1bdad95b88185b1c9958591e481b5a5b9d195960621b60448201526064016103ec565b6001600160a01b0382166000908152600360205260408120805460019290610c2d908490611310565b909155505060008181526002602052604080822080546001600160a01b0319166001600160a01b03861690811790915590518392907fddf252ad1be2c89b69c2b068fc378daa952ba7f163c4a11628f55a4df523b3ef908290a45050565b610c97858585856109c6565b610ca384848484610dfb565b61082e5760405162461bcd60e51b81526020600482015260126024820152713737ba1022a9219b9918a932b1b2b4bb32b960711b60448201526064016103ec565b606081600003610d0b5750506040805180820190915260018152600360fc1b602082015290565b8160005b8115610d355780610d1f81611323565b9150610d2e9050600a83611352565b9150610d0f565b60008167ffffffffffffffff811115610d5057610d50611159565b6040519080825280601f01601f191660200182016040528015610d7a576020820181803683370190505b5090505b84156109be57610d8f6001836112fd565b9150610d9c600a86611366565b610da7906030611310565b60f81b818381518110610dbc57610dbc61137a565b60200101906001600160f81b031916908160001a905350610dde600a86611352565b9450610d7e565b600082610df28584610ea1565b14949350505050565b60006001600160a01b0384163b15610e9657604051630a85bd0160e11b808252906001600160a01b0386169063150b7a0290610e419033908a9089908990600401611390565b6020604051808303816000875af1158015610e60573d6000803e3d6000fd5b505050506040513d601f19601f82011682018060405250810190610e8491906113cd565b6001600160e01b0319161490506109be565b506001949350505050565b600081815b8451811015610edc57610ed282868381518110610ec557610ec561137a565b6020026020010151610ee4565b9150600101610ea6565b509392505050565b6000818310610f1c576040805160208101849052908101849052606001604051602081830303815290604052805190602001206108f0565b50604080516020808201949094528082019290925280518083038201815260609092019052805191012090565b6001600160e01b031981168114610f5f57600080fd5b50565b600060208284031215610f7457600080fd5b81356108f081610f49565b60005b83811015610f9a578181015183820152602001610f82565b50506000910152565b60008151808452610fbb816020860160208601610f7f565b601f01601f19169290920160200192915050565b6020815260006108f06020830184610fa3565b600060208284031215610ff457600080fd5b5035919050565b80356001600160a01b038116811461059b57600080fd5b6000806040838503121561102557600080fd5b61102e83610ffb565b946020939093013593505050565b60008060006060848603121561105157600080fd5b61105a84610ffb565b925061106860208501610ffb565b9150604084013590509250925092565b60006020828403121561108a57600080fd5b6108f082610ffb565b600080600080606085870312156110a957600080fd5b6110b285610ffb565b935060208501359250604085013567ffffffffffffffff808211156110d657600080fd5b818701915087601f8301126110ea57600080fd5b8135818111156110f957600080fd5b8860208260051b850101111561110e57600080fd5b95989497505060200194505050565b6000806040838503121561113057600080fd5b61113983610ffb565b91506020830135801515811461114e57600080fd5b809150509250929050565b634e487b7160e01b600052604160045260246000fd5b6000806000806080858703121561118557600080fd5b61118e85610ffb565b935061119c60208601610ffb565b925060408501359150606085013567ffffffffffffffff808211156111c057600080fd5b818701915087601f8301126111d457600080fd5b8135818111156111e6576111e6611159565b604051601f8201601f19908116603f0116810190838211818310171561120e5761120e611159565b816040528281528a602084870101111561122757600080fd5b82602086016020830137600060208483010152809550505050505092959194509250565b6000806040838503121561125e57600080fd5b61126783610ffb565b915061127560208401610ffb565b90509250929050565b600181811c9082168061129257607f821691505b6020821081036112b257634e487b7160e01b600052602260045260246000fd5b50919050565b600083516112ca818460208801610f7f565b8351908301906112de818360208801610f7f565b01949350505050565b634e487b7160e01b600052601160045260246000fd5b81810381811115610302576103026112e7565b80820180821115610302576103026112e7565b600060018201611335576113356112e7565b5060010190565b634e487b7160e01b600052601260045260246000fd5b6000826113615761136161133c565b500490565b6000826113755761137561133c565b500690565b634e487b7160e01b600052603260045260246000fd5b6001600160a01b03858116825284166020820152604081018390526080606082018190526000906113c390830184610fa3565b9695505050505050565b6000602082840312156113df57600080fd5b81516108f081610f4956fea264697066735822122005c4a09e23bb4599ce8a40c6cca1d7622b3b6bd90df1b49800fbbbbf5ff8fd4b64736f6c63430008190033","linkReferences":{}},"methodIdentifiers":{"approve(address,uint256)":"095ea7b3","balanceOf(address)":"70a08231","getApproved(uint256)":"081812fc","isApprovedForAll(address,address)":"e985e9c5","mint(address,uint256,bytes32[])":"641ce140","mintedAddress(address)":"630303c6","name()":"06fdde03","ownerOf(uint256)":"6352211e","root()":"ebf0c717","safeTransferFrom(address,address,uint256)":"42842e0e","safeTransferFrom(address,address,uint256,bytes)":"b88d4fde","setApprovalForAll(address,bool)":"a22cb465","supportsInterface(bytes4)":"01ffc9a7","symbol()":"95d89b41","tokenURI(uint256)":"c87b56dd","transferFrom(address,address,uint256)":"23b872dd"},"id":27}