{"abi":[{"type":"fallback","stateMutability":"payable"},{"type":"function","name":"list","inputs":[{"name":"_nftAddr","type":"address","internalType":"address"},{"name":"_tokenId","type":"uint256","internalType":"uint256"},{"name":"_price","type":"uint256","internalType":"uint256"}],"outputs":[],"stateMutability":"nonpayable"},{"type":"function","name":"nftList","inputs":[{"name":"","type":"address","internalType":"address"},{"name":"","type":"uint256","internalType":"uint256"}],"outputs":[{"name":"owner","type":"address","internalType":"address"},{"name":"price","type":"uint256","internalType":"uint256"}],"stateMutability":"view"},{"type":"function","name":"onERC721Received","inputs":[{"name":"operator","type":"address","internalType":"address"},{"name":"from","type":"address","internalType":"address"},{"name":"tokenId","type":"uint256","internalType":"uint256"},{"name":"data","type":"bytes","internalType":"bytes"}],"outputs":[{"name":"","type":"bytes4","internalType":"bytes4"}],"stateMutability":"nonpayable"},{"type":"function","name":"purchase","inputs":[{"name":"_nftAddr","type":"address","internalType":"address"},{"name":"_tokenId","type":"uint256","internalType":"uint256"}],"outputs":[],"stateMutability":"payable"},{"type":"function","name":"revoke","inputs":[{"name":"_nftAddr","type":"address","internalType":"address"},{"name":"_tokenId","type":"uint256","internalType":"uint256"}],"outputs":[],"stateMutability":"nonpayable"},{"type":"function","name":"update","inputs":[{"name":"_nftAddr","type":"address","internalType":"address"},{"name":"_tokenId","type":"uint256","internalType":"uint256"},{"name":"_newPrice","type":"uint256","internalType":"uint256"}],"outputs":[],"stateMutability":"nonpayable"},{"type":"event","name":"List","inputs":[{"name":"seller","type":"address","indexed":true,"internalType":"address"},{"name":"nftAddr","type":"address","indexed":true,"internalType":"address"},{"name":"tokenId","type":"uint256","indexed":true,"internalType":"uint256"},{"name":"price","type":"uint256","indexed":false,"internalType":"uint256"}],"anonymous":false},{"type":"event","name":"Purchase","inputs":[{"name":"buyer","type":"address","indexed":true,"internalType":"address"},{"name":"nftAddr","type":"address","indexed":true,"internalType":"address"},{"name":"tokenId","type":"uint256","indexed":true,"internalType":"uint256"},{"name":"price","type":"uint256","indexed":false,"internalType":"uint256"}],"anonymous":false},{"type":"event","name":"Revoke","inputs":[{"name":"seller","type":"address","indexed":true,"internalType":"address"},{"name":"nftAddr","type":"address","indexed":true,"internalType":"address"},{"name":"tokenId","type":"uint256","indexed":true,"internalType":"uint256"}],"anonymous":false},{"type":"event","name":"Update","inputs":[{"name":"seller","type":"address","indexed":true,"internalType":"address"},{"name":"nftAddr","type":"address","indexed":true,"internalType":"address"},{"name":"tokenId","type":"uint256","indexed":true,"internalType":"uint256"},{"name":"newPrice","type":"uint256","indexed":false,"internalType":"uint256"}],"anonymous":false}],"bytecode":{"object":"0x6080604052348015600f57600080fd5b50610ab98061001f6000396000f3fe6080604052600436106100555760003560e01c8063150b7a02146100575780638de93222146100a1578063ba5f4fb2146100b4578063d09b6d431461011b578063dda342bb1461013b578063eac449d91461015b575b005b34801561006357600080fd5b50610083610072366004610911565b630a85bd0160e11b95945050505050565b6040516001600160e01b031990911681526020015b60405180910390f35b6100556100af3660046109b0565b61017b565b3480156100c057600080fd5b506100fc6100cf3660046109b0565b6000602081815292815260408082209093529081522080546001909101546001600160a01b039091169082565b604080516001600160a01b039093168352602083019190915201610098565b34801561012757600080fd5b506100556101363660046109dc565b610413565b34801561014757600080fd5b506100556101563660046109dc565b610598565b34801561016757600080fd5b506100556101763660046109b0565b61073b565b6001600160a01b038216600090815260208181526040808320848452909152902060018101546101e25760405162461bcd60e51b815260206004820152600d60248201526c496e76616c696420507269636560981b60448201526064015b60405180910390fd5b80600101543410156102275760405162461bcd60e51b815260206004820152600e60248201526d496e63726561736520707269636560901b60448201526064016101d9565b6040516331a9108f60e11b815260048101839052839030906001600160a01b03831690636352211e90602401602060405180830381865afa158015610270573d6000803e3d6000fd5b505050506040513d601f19601f820116820180604052508101906102949190610a11565b6001600160a01b0316146102ba5760405162461bcd60e51b81526004016101d990610a35565b604051632142170760e11b8152306004820152336024820152604481018490526001600160a01b038216906342842e0e90606401600060405180830381600087803b15801561030857600080fd5b505af115801561031c573d6000803e3d6000fd5b5050835460018501546040516001600160a01b03909216935080156108fc029250906000818181858888f1935050505015801561035d573d6000803e3d6000fd5b50600182015433906108fc906103739034610a5c565b6040518115909202916000818181858888f1935050505015801561039b573d6000803e3d6000fd5b506001600160a01b038416600081815260208181526040808320878452825280832080546001600160a01b031916815560019081019390935591850154915191825285929133917f46661dab58311a6838247afecbee792192b4f27fc8b3e7168c66bc55ec2e404e910160405180910390a450505050565b600081116104535760405162461bcd60e51b815260206004820152600d60248201526c496e76616c696420507269636560981b60448201526064016101d9565b6001600160a01b038084166000908152602081815260408083208684529091529020805490911633146104b45760405162461bcd60e51b81526020600482015260096024820152682737ba1027bbb732b960b91b60448201526064016101d9565b6040516331a9108f60e11b815260048101849052849030906001600160a01b03831690636352211e90602401602060405180830381865afa1580156104fd573d6000803e3d6000fd5b505050506040513d601f19601f820116820180604052508101906105219190610a11565b6001600160a01b0316146105475760405162461bcd60e51b81526004016101d990610a35565b6001820183905560405183815284906001600160a01b0387169033907fb7f0ca7cd5b24651672216886135b99ff40342bcf549009a4c6fc74f059fb9a0906020015b60405180910390a45050505050565b60405163020604bf60e21b815260048101839052839030906001600160a01b0383169063081812fc90602401602060405180830381865afa1580156105e1573d6000803e3d6000fd5b505050506040513d601f19601f820116820180604052508101906106059190610a11565b6001600160a01b03161461064b5760405162461bcd60e51b815260206004820152600d60248201526c1399595908105c1c1c9bdd985b609a1b60448201526064016101d9565b6000821161065857600080fd5b6001600160a01b038481166000908152602081815260408083208784529091529081902080546001600160a01b031916339081178255600182018690559151632142170760e11b8152600481019290925230602483015260448201869052918316906342842e0e90606401600060405180830381600087803b1580156106dd57600080fd5b505af11580156106f1573d6000803e3d6000fd5b5050505083856001600160a01b0316336001600160a01b03167fedbdf022944a3291f4b30148903a84720506f48e10478ec5812e5caf30e1fab08660405161058991815260200190565b6001600160a01b0380831660009081526020818152604080832085845290915290208054909116331461079c5760405162461bcd60e51b81526020600482015260096024820152682737ba1027bbb732b960b91b60448201526064016101d9565b6040516331a9108f60e11b815260048101839052839030906001600160a01b03831690636352211e90602401602060405180830381865afa1580156107e5573d6000803e3d6000fd5b505050506040513d601f19601f820116820180604052508101906108099190610a11565b6001600160a01b03161461082f5760405162461bcd60e51b81526004016101d990610a35565b604051632142170760e11b8152306004820152336024820152604481018490526001600160a01b038216906342842e0e90606401600060405180830381600087803b15801561087d57600080fd5b505af1158015610891573d6000803e3d6000fd5b5050506001600160a01b03851660008181526020818152604080832088845290915280822080546001600160a01b03191681556001018290555186935033917fb698e31a2abee5824d0d7bcfd2339aead7f9e9ae413fba50bf554ff3fa470b7b91a450505050565b6001600160a01b038116811461090e57600080fd5b50565b60008060008060006080868803121561092957600080fd5b8535610934816108f9565b94506020860135610944816108f9565b935060408601359250606086013567ffffffffffffffff8082111561096857600080fd5b818801915088601f83011261097c57600080fd5b81358181111561098b57600080fd5b89602082850101111561099d57600080fd5b9699959850939650602001949392505050565b600080604083850312156109c357600080fd5b82356109ce816108f9565b946020939093013593505050565b6000806000606084860312156109f157600080fd5b83356109fc816108f9565b95602085013595506040909401359392505050565b600060208284031215610a2357600080fd5b8151610a2e816108f9565b9392505050565b6020808252600d908201526c24b73b30b634b21027b93232b960991b604082015260600190565b81810381811115610a7d57634e487b7160e01b600052601160045260246000fd5b9291505056fea2646970667358221220fc211c508413c44dceb533ef06691097f52cb436358bb449716b092c8739a12a64736f6c63430008190033","linkReferences":{}},"methodIdentifiers":{"list(address,uint256,uint256)":"dda342bb","nftList(address,uint256)":"ba5f4fb2","onERC721Received(address,address,uint256,bytes)":"150b7a02","purchase(address,uint256)":"8de93222","revoke(address,uint256)":"eac449d9","update(address,uint256,uint256)":"d09b6d43"},"id":27}