{"abi":[{"type":"constructor","inputs":[{"name":"_tokenContract","type":"address","internalType":"address"}],"stateMutability":"nonpayable"},{"type":"function","name":"amountAllowed","inputs":[],"outputs":[{"name":"","type":"uint256","internalType":"uint256"}],"stateMutability":"view"},{"type":"function","name":"requestTokens","inputs":[],"outputs":[],"stateMutability":"nonpayable"},{"type":"function","name":"requestedAddress","inputs":[{"name":"","type":"address","internalType":"address"}],"outputs":[{"name":"","type":"bool","internalType":"bool"}],"stateMutability":"view"},{"type":"function","name":"tokenContract","inputs":[],"outputs":[{"name":"","type":"address","internalType":"address"}],"stateMutability":"view"},{"type":"event","name":"SendToken","inputs":[{"name":"Receiver","type":"address","indexed":true,"internalType":"address"},{"name":"Amount","type":"uint256","indexed":true,"internalType":"uint256"}],"anonymous":false}],"bytecode":{"object":"0x60806040526064600055348015601457600080fd5b506040516103da3803806103da8339810160408190526031916055565b600180546001600160a01b0319166001600160a01b03929092169190911790556083565b600060208284031215606657600080fd5b81516001600160a01b0381168114607c57600080fd5b9392505050565b610348806100926000396000f3fe608060405234801561001057600080fd5b506004361061004c5760003560e01c8063359cf2b71461005157806355a373d61461005b5780635e33dba91461008b5780639ad2cd14146100be575b600080fd5b6100596100d5565b005b60015461006e906001600160a01b031681565b6040516001600160a01b0390911681526020015b60405180910390f35b6100ae6100993660046102a7565b60026020526000908152604090205460ff1681565b6040519015158152602001610082565b6100c760005481565b604051908152602001610082565b3360009081526002602052604090205460ff161561013a5760405162461bcd60e51b815260206004820152601d60248201527f43616e27742052657175657374204d756c7469706c652054696d65732100000060448201526064015b60405180910390fd5b6001546000546040516370a0823160e01b81523060048201526001600160a01b039092169182906370a0823190602401602060405180830381865afa158015610187573d6000803e3d6000fd5b505050506040513d601f19601f820116820180604052508101906101ab91906102d7565b10156101e95760405162461bcd60e51b815260206004820152600d60248201526c46617563657420456d7074792160981b6044820152606401610131565b60005460405163a9059cbb60e01b815233600482015260248101919091526001600160a01b0382169063a9059cbb906044016020604051808303816000875af115801561023a573d6000803e3d6000fd5b505050506040513d601f19601f8201168201806040525081019061025e91906102f0565b5033600081815260026020526040808220805460ff19166001179055815490519092917f916800025d85907d1e91e112659a8e7e77a17ea4de231b05f15bb381d3bfde6191a350565b6000602082840312156102b957600080fd5b81356001600160a01b03811681146102d057600080fd5b9392505050565b6000602082840312156102e957600080fd5b5051919050565b60006020828403121561030257600080fd5b815180151581146102d057600080fdfea26469706673582212203e4838ea90995d659709a3b69c07903244b04d497885f888257ed954d27f773e64736f6c63430008190033","linkReferences":{}},"methodIdentifiers":{"amountAllowed()":"9ad2cd14","requestTokens()":"359cf2b7","requestedAddress(address)":"5e33dba9","tokenContract()":"55a373d6"},"id":21}