{"abi":[{"type":"constructor","inputs":[{"name":"_name","type":"string","internalType":"string"},{"name":"_symbol","type":"string","internalType":"string"},{"name":"_signer","type":"address","internalType":"address"}],"stateMutability":"nonpayable"},{"type":"function","name":"approve","inputs":[{"name":"to","type":"address","internalType":"address"},{"name":"tokenId","type":"uint256","internalType":"uint256"}],"outputs":[],"stateMutability":"nonpayable"},{"type":"function","name":"balanceOf","inputs":[{"name":"owner","type":"address","internalType":"address"}],"outputs":[{"name":"","type":"uint256","internalType":"uint256"}],"stateMutability":"view"},{"type":"function","name":"getApproved","inputs":[{"name":"tokenId","type":"uint256","internalType":"uint256"}],"outputs":[{"name":"","type":"address","internalType":"address"}],"stateMutability":"view"},{"type":"function","name":"getMessageHash","inputs":[{"name":"_account","type":"address","internalType":"address"},{"name":"_tokenId","type":"uint256","internalType":"uint256"}],"outputs":[{"name":"","type":"bytes32","internalType":"bytes32"}],"stateMutability":"pure"},{"type":"function","name":"isApprovedForAll","inputs":[{"name":"owner","type":"address","internalType":"address"},{"name":"operator","type":"address","internalType":"address"}],"outputs":[{"name":"","type":"bool","internalType":"bool"}],"stateMutability":"view"},{"type":"function","name":"mint","inputs":[{"name":"_account","type":"address","internalType":"address"},{"name":"_tokenId","type":"uint256","internalType":"uint256"},{"name":"_signature","type":"bytes","internalType":"bytes"}],"outputs":[],"stateMutability":"nonpayable"},{"type":"function","name":"mintedAddress","inputs":[{"name":"","type":"address","internalType":"address"}],"outputs":[{"name":"","type":"bool","internalType":"bool"}],"stateMutability":"view"},{"type":"function","name":"name","inputs":[],"outputs":[{"name":"","type":"string","internalType":"string"}],"stateMutability":"view"},{"type":"function","name":"ownerOf","inputs":[{"name":"tokenId","type":"uint256","internalType":"uint256"}],"outputs":[{"name":"owner","type":"address","internalType":"address"}],"stateMutability":"view"},{"type":"function","name":"safeTransferFrom","inputs":[{"name":"from","type":"address","internalType":"address"},{"name":"to","type":"address","internalType":"address"},{"name":"tokenId","type":"uint256","internalType":"uint256"}],"outputs":[],"stateMutability":"nonpayable"},{"type":"function","name":"safeTransferFrom","inputs":[{"name":"from","type":"address","internalType":"address"},{"name":"to","type":"address","internalType":"address"},{"name":"tokenId","type":"uint256","internalType":"uint256"},{"name":"_data","type":"bytes","internalType":"bytes"}],"outputs":[],"stateMutability":"nonpayable"},{"type":"function","name":"setApprovalForAll","inputs":[{"name":"operator","type":"address","internalType":"address"},{"name":"approved","type":"bool","internalType":"bool"}],"outputs":[],"stateMutability":"nonpayable"},{"type":"function","name":"signer","inputs":[],"outputs":[{"name":"","type":"address","internalType":"address"}],"stateMutability":"view"},{"type":"function","name":"supportsInterface","inputs":[{"name":"interfaceId","type":"bytes4","internalType":"bytes4"}],"outputs":[{"name":"","type":"bool","internalType":"bool"}],"stateMutability":"pure"},{"type":"function","name":"symbol","inputs":[],"outputs":[{"name":"","type":"string","internalType":"string"}],"stateMutability":"view"},{"type":"function","name":"tokenURI","inputs":[{"name":"tokenId","type":"uint256","internalType":"uint256"}],"outputs":[{"name":"","type":"string","internalType":"string"}],"stateMutability":"view"},{"type":"function","name":"transferFrom","inputs":[{"name":"from","type":"address","internalType":"address"},{"name":"to","type":"address","internalType":"address"},{"name":"tokenId","type":"uint256","internalType":"uint256"}],"outputs":[],"stateMutability":"nonpayable"},{"type":"function","name":"verify","inputs":[{"name":"_msgHash","type":"bytes32","internalType":"bytes32"},{"name":"_signature","type":"bytes","internalType":"bytes"}],"outputs":[{"name":"","type":"bool","internalType":"bool"}],"stateMutability":"view"},{"type":"event","name":"Approval","inputs":[{"name":"owner","type":"address","indexed":true,"internalType":"address"},{"name":"approved","type":"address","indexed":true,"internalType":"address"},{"name":"tokenId","type":"uint256","indexed":true,"internalType":"uint256"}],"anonymous":false},{"type":"event","name":"ApprovalForAll","inputs":[{"name":"owner","type":"address","indexed":true,"internalType":"address"},{"name":"operator","type":"address","indexed":true,"internalType":"address"},{"name":"approved","type":"bool","indexed":false,"internalType":"bool"}],"anonymous":false},{"type":"event","name":"Transfer","inputs":[{"name":"from","type":"address","indexed":true,"internalType":"address"},{"name":"to","type":"address","indexed":true,"internalType":"address"},{"name":"tokenId","type":"uint256","indexed":true,"internalType":"uint256"}],"anonymous":false}],"bytecode":{"object":"0x60a060405234801561001057600080fd5b5060405161184b38038061184b83398101604081905261002f9161011f565b8282600061003d838261022f565b50600161004a828261022f565b5050506001600160a01b0316608052506102ee9050565b634e487b7160e01b600052604160045260246000fd5b600082601f83011261008857600080fd5b81516001600160401b03808211156100a2576100a2610061565b604051601f8301601f19908116603f011681019082821181831017156100ca576100ca610061565b81604052838152602092508660208588010111156100e757600080fd5b600091505b8382101561010957858201830151818301840152908201906100ec565b6000602085830101528094505050505092915050565b60008060006060848603121561013457600080fd5b83516001600160401b038082111561014b57600080fd5b61015787838801610077565b9450602086015191508082111561016d57600080fd5b5061017a86828701610077565b604086015190935090506001600160a01b038116811461019957600080fd5b809150509250925092565b600181811c908216806101b857607f821691505b6020821081036101d857634e487b7160e01b600052602260045260246000fd5b50919050565b601f82111561022a576000816000526020600020601f850160051c810160208610156102075750805b601f850160051c820191505b8181101561022657828155600101610213565b5050505b505050565b81516001600160401b0381111561024857610248610061565b61025c8161025684546101a4565b846101de565b602080601f83116001811461029157600084156102795750858301515b600019600386901b1c1916600185901b178555610226565b600085815260208120601f198616915b828110156102c0578886015182559484019460019091019084016102a1565b50858210156102de5787850151600019600388901b60f8161c191681555b5050505050600190811b01905550565b60805161153b6103106000396000818161019d015261056a015261153b6000f3fe608060405234801561001057600080fd5b50600436106101165760003560e01c8063630303c6116100a257806395d89b411161007157806395d89b4114610275578063a22cb4651461027d578063b88d4fde14610290578063c87b56dd146102a3578063e985e9c5146102b657600080fd5b8063630303c6146102195780636352211e1461023c57806370a082311461024f57806394d008ef1461026257600080fd5b8063238ac933116100e9578063238ac9331461019857806323b872dd146101bf578063258ae582146101d257806342842e0e146101e5578063512c91df146101f857600080fd5b806301ffc9a71461011b57806306fdde0314610143578063081812fc14610158578063095ea7b314610183575b600080fd5b61012e610129366004611037565b6102f2565b60405190151581526020015b60405180910390f35b61014b610344565b60405161013a91906110a4565b61016b6101663660046110b7565b6103d2565b6040516001600160a01b03909116815260200161013a565b6101966101913660046110e7565b61044d565b005b61016b7f000000000000000000000000000000000000000000000000000000000000000081565b6101966101cd366004611111565b6104f2565b61012e6101e03660046111f0565b610561565b6101966101f3366004611111565b610595565b61020b6102063660046110e7565b6105b0565b60405190815260200161013a565b61012e610227366004611237565b60066020526000908152604090205460ff1681565b61016b61024a3660046110b7565b6105f7565b61020b61025d366004611237565b610657565b610196610270366004611252565b6106c2565b61014b610823565b61019661028b3660046112a9565b610830565b61019661029e3660046112e5565b61089c565b61014b6102b13660046110b7565b610906565b61012e6102c436600461134d565b6001600160a01b03918216600090815260056020908152604080832093909416825291909152205460ff1690565b60006001600160e01b031982166380ac58cd60e01b148061032357506001600160e01b031982166301ffc9a760e01b145b8061033e57506001600160e01b03198216635b5e139f60e01b145b92915050565b6000805461035190611380565b80601f016020809104026020016040519081016040528092919081815260200182805461037d90611380565b80156103ca5780601f1061039f576101008083540402835291602001916103ca565b820191906000526020600020905b8154815290600101906020018083116103ad57829003601f168201915b505050505081565b6000818152600260205260408120546001600160a01b03166104315760405162461bcd60e51b81526020600482015260136024820152721d1bdad95b88191bd95cdb89dd08195e1a5cdd606a1b60448201526064015b60405180910390fd5b506000908152600460205260409020546001600160a01b031690565b6000818152600260205260409020546001600160a01b03163381148061049657506001600160a01b038116600090815260056020908152604080832033845290915290205460ff165b6104e25760405162461bcd60e51b815260206004820152601e60248201527f6e6f74206f776e6572206e6f7220617070726f76656420666f7220616c6c00006044820152606401610428565b6104ed8184846109c7565b505050565b60006104fd826105f7565b905061050a813384610a23565b61054f5760405162461bcd60e51b81526020600482015260166024820152751b9bdd081bdddb995c881b9bdc88185c1c1c9bdd995960521b6044820152606401610428565b61055b81858585610a96565b50505050565b600061058e83837f0000000000000000000000000000000000000000000000000000000000000000610bfe565b9392505050565b6104ed8383836040518060200160405280600081525061089c565b6040516bffffffffffffffffffffffff19606084901b1660208201526034810182905260009060540160405160208183030381529060405280519060200120905092915050565b6000818152600260205260409020546001600160a01b0316806106525760405162461bcd60e51b81526020600482015260136024820152721d1bdad95b88191bd95cdb89dd08195e1a5cdd606a1b6044820152606401610428565b919050565b60006001600160a01b0382166106a65760405162461bcd60e51b81526020600482015260146024820152736f776e6572203d207a65726f206164647265737360601b6044820152606401610428565b506001600160a01b031660009081526003602052604090205490565b60006106ce84846105b0565b60405163918a15cf60e01b81526004810182905290915060009073__$e56fc32e79819d3ff5a3cf88541a8407cd$__9063918a15cf90602401602060405180830381865af4158015610724573d6000803e3d6000fd5b505050506040513d601f19601f8201168201806040525081019061074891906113ba565b90506107548184610561565b6107945760405162461bcd60e51b8152602060048201526011602482015270496e76616c6964207369676e617475726560781b6044820152606401610428565b6001600160a01b03851660009081526006602052604090205460ff16156107ef5760405162461bcd60e51b815260206004820152600f60248201526e416c7265616479206d696e7465642160881b6044820152606401610428565b6001600160a01b0385166000908152600660205260409020805460ff1916600117905561081c8585610c26565b5050505050565b6001805461035190611380565b3360008181526005602090815260408083206001600160a01b03871680855290835292819020805460ff191686151590811790915590519081529192917f17307eab39ab6107e8899845ad3d59bd9653f200f220920489ca2b5937696c31910160405180910390a35050565b60006108a7836105f7565b90506108b4813385610a23565b6108f95760405162461bcd60e51b81526020600482015260166024820152751b9bdd081bdddb995c881b9bdc88185c1c1c9bdd995960521b6044820152606401610428565b61081c8186868686610d56565b6000818152600260205260409020546060906001600160a01b031661095f5760405162461bcd60e51b815260206004820152600f60248201526e151bdad95b88139bdd08115e1a5cdd608a1b6044820152606401610428565b600061097660408051602081019091526000815290565b90506000815111610996576040518060200160405280600081525061058e565b806109a084610daf565b6040516020016109b19291906113d3565b6040516020818303038152906040529392505050565b60008181526004602052604080822080546001600160a01b0319166001600160a01b0386811691821790925591518493918716917f8c5be1e5ebec7d5bd14f71427d1e84f3dd0314c0f7b2291e5b200ac8c7c3b92591a4505050565b6000836001600160a01b0316836001600160a01b03161480610a5e57506000828152600460205260409020546001600160a01b038481169116145b80610a8e57506001600160a01b0380851660009081526005602090815260408083209387168352929052205460ff165b949350505050565b836001600160a01b0316836001600160a01b031614610ae35760405162461bcd60e51b81526020600482015260096024820152683737ba1037bbb732b960b91b6044820152606401610428565b6001600160a01b038216610b395760405162461bcd60e51b815260206004820152601c60248201527f7472616e7366657220746f20746865207a65726f2061646472657373000000006044820152606401610428565b610b45846000836109c7565b6001600160a01b0383166000908152600360205260408120805460019290610b6e908490611418565b90915550506001600160a01b0382166000908152600360205260408120805460019290610b9c90849061142b565b909155505060008181526002602052604080822080546001600160a01b0319166001600160a01b0386811691821790925591518493918716917fddf252ad1be2c89b69c2b068fc378daa952ba7f163c4a11628f55a4df523b3ef91a450505050565b6000816001600160a01b0316610c148585610eb0565b6001600160a01b031614949350505050565b6001600160a01b038216610c735760405162461bcd60e51b81526020600482015260146024820152736d696e7420746f207a65726f206164647265737360601b6044820152606401610428565b6000818152600260205260409020546001600160a01b031615610ccf5760405162461bcd60e51b81526020600482015260146024820152731d1bdad95b88185b1c9958591e481b5a5b9d195960621b6044820152606401610428565b6001600160a01b0382166000908152600360205260408120805460019290610cf890849061142b565b909155505060008181526002602052604080822080546001600160a01b0319166001600160a01b03861690811790915590518392907fddf252ad1be2c89b69c2b068fc378daa952ba7f163c4a11628f55a4df523b3ef908290a45050565b610d6285858585610a96565b610d6e84848484610f78565b61081c5760405162461bcd60e51b81526020600482015260126024820152713737ba1022a9219b9918a932b1b2b4bb32b960711b6044820152606401610428565b606081600003610dd65750506040805180820190915260018152600360fc1b602082015290565b8160005b8115610e005780610dea8161143e565b9150610df99050600a8361146d565b9150610dda565b60008167ffffffffffffffff811115610e1b57610e1b61114d565b6040519080825280601f01601f191660200182016040528015610e45576020820181803683370190505b5090505b8415610a8e57610e5a600183611418565b9150610e67600a86611481565b610e7290603061142b565b60f81b818381518110610e8757610e87611495565b60200101906001600160f81b031916908160001a905350610ea9600a8661146d565b9450610e49565b60008151604114610f035760405162461bcd60e51b815260206004820152601860248201527f696e76616c6964207369676e6174757265206c656e67746800000000000000006044820152606401610428565b602082810151604080850151606080870151835160008082529681018086528a9052951a928501839052840183905260808401819052919260019060a0016020604051602081039080840390855afa158015610f63573d6000803e3d6000fd5b5050604051601f190151979650505050505050565b60006001600160a01b0384163b1561101357604051630a85bd0160e11b808252906001600160a01b0386169063150b7a0290610fbe9033908a90899089906004016114ab565b6020604051808303816000875af1158015610fdd573d6000803e3d6000fd5b505050506040513d601f19601f8201168201806040525081019061100191906114e8565b6001600160e01b031916149050610a8e565b506001949350505050565b6001600160e01b03198116811461103457600080fd5b50565b60006020828403121561104957600080fd5b813561058e8161101e565b60005b8381101561106f578181015183820152602001611057565b50506000910152565b60008151808452611090816020860160208601611054565b601f01601f19169290920160200192915050565b60208152600061058e6020830184611078565b6000602082840312156110c957600080fd5b5035919050565b80356001600160a01b038116811461065257600080fd5b600080604083850312156110fa57600080fd5b611103836110d0565b946020939093013593505050565b60008060006060848603121561112657600080fd5b61112f846110d0565b925061113d602085016110d0565b9150604084013590509250925092565b634e487b7160e01b600052604160045260246000fd5b600082601f83011261117457600080fd5b813567ffffffffffffffff8082111561118f5761118f61114d565b604051601f8301601f19908116603f011681019082821181831017156111b7576111b761114d565b816040528381528660208588010111156111d057600080fd5b836020870160208301376000602085830101528094505050505092915050565b6000806040838503121561120357600080fd5b82359150602083013567ffffffffffffffff81111561122157600080fd5b61122d85828601611163565b9150509250929050565b60006020828403121561124957600080fd5b61058e826110d0565b60008060006060848603121561126757600080fd5b611270846110d0565b925060208401359150604084013567ffffffffffffffff81111561129357600080fd5b61129f86828701611163565b9150509250925092565b600080604083850312156112bc57600080fd5b6112c5836110d0565b9150602083013580151581146112da57600080fd5b809150509250929050565b600080600080608085870312156112fb57600080fd5b611304856110d0565b9350611312602086016110d0565b925060408501359150606085013567ffffffffffffffff81111561133557600080fd5b61134187828801611163565b91505092959194509250565b6000806040838503121561136057600080fd5b611369836110d0565b9150611377602084016110d0565b90509250929050565b600181811c9082168061139457607f821691505b6020821081036113b457634e487b7160e01b600052602260045260246000fd5b50919050565b6000602082840312156113cc57600080fd5b5051919050565b600083516113e5818460208801611054565b8351908301906113f9818360208801611054565b01949350505050565b634e487b7160e01b600052601160045260246000fd5b8181038181111561033e5761033e611402565b8082018082111561033e5761033e611402565b60006001820161145057611450611402565b5060010190565b634e487b7160e01b600052601260045260246000fd5b60008261147c5761147c611457565b500490565b60008261149057611490611457565b500690565b634e487b7160e01b600052603260045260246000fd5b6001600160a01b03858116825284166020820152604081018390526080606082018190526000906114de90830184611078565b9695505050505050565b6000602082840312156114fa57600080fd5b815161058e8161101e56fea26469706673582212201eedf3ae6ddf0dc44aeef9f689d1dac524fc66d323f8aecbc6ad84d3d91d3efa64736f6c63430008190033","linkReferences":{"src/Signature.sol":{"ECDSA":[{"start":2554,"length":20}]}}},"methodIdentifiers":{"approve(address,uint256)":"095ea7b3","balanceOf(address)":"70a08231","getApproved(uint256)":"081812fc","getMessageHash(address,uint256)":"512c91df","isApprovedForAll(address,address)":"e985e9c5","mint(address,uint256,bytes)":"94d008ef","mintedAddress(address)":"630303c6","name()":"06fdde03","ownerOf(uint256)":"6352211e","safeTransferFrom(address,address,uint256)":"42842e0e","safeTransferFrom(address,address,uint256,bytes)":"b88d4fde","setApprovalForAll(address,bool)":"a22cb465","signer()":"238ac933","supportsInterface(bytes4)":"01ffc9a7","symbol()":"95d89b41","tokenURI(uint256)":"c87b56dd","transferFrom(address,address,uint256)":"23b872dd","verify(bytes32,bytes)":"258ae582"},"id":27}