{"abi":[{"type":"function","name":"getEthSignedMessageHash","inputs":[{"name":"_messageHash","type":"bytes32","internalType":"bytes32"}],"outputs":[{"name":"","type":"bytes32","internalType":"bytes32"}],"stateMutability":"pure"},{"type":"function","name":"getMessageHash","inputs":[{"name":"_addr","type":"address","internalType":"address"},{"name":"_tokenId","type":"uint256","internalType":"uint256"}],"outputs":[{"name":"","type":"bytes32","internalType":"bytes32"}],"stateMutability":"pure"},{"type":"function","name":"recoverSigner","inputs":[{"name":"_ethSignedMessageHash","type":"bytes32","internalType":"bytes32"},{"name":"_signature","type":"bytes","internalType":"bytes"}],"outputs":[{"name":"","type":"address","internalType":"address"}],"stateMutability":"pure"},{"type":"function","name":"splitSignature","inputs":[{"name":"sig","type":"bytes","internalType":"bytes"}],"outputs":[{"name":"r","type":"bytes32","internalType":"bytes32"},{"name":"s","type":"bytes32","internalType":"bytes32"},{"name":"v","type":"uint8","internalType":"uint8"}],"stateMutability":"pure"},{"type":"function","name":"verify","inputs":[{"name":"_signer","type":"address","internalType":"address"},{"name":"_addr","type":"address","internalType":"address"},{"name":"_tokenId","type":"uint256","internalType":"uint256"},{"name":"signature","type":"bytes","internalType":"bytes"}],"outputs":[{"name":"","type":"bool","internalType":"bool"}],"stateMutability":"pure"}],"bytecode":{"object":"0x6080604052348015600f57600080fd5b5061050e8061001f6000396000f3fe608060405234801561001057600080fd5b50600436106100575760003560e01c8063512c91df1461005c57806393e9f8fc1461008257806397aba7f9146100a5578063a7bb5803146100d0578063fa54080114610101575b600080fd5b61006f61006a366004610306565b610114565b6040519081526020015b60405180910390f35b6100956100903660046103d3565b61015b565b6040519015158152602001610079565b6100b86100b336600461043b565b6101a0565b6040516001600160a01b039091168152602001610079565b6100e36100de366004610482565b61021f565b60408051938452602084019290925260ff1690820152606001610079565b61006f61010f3660046104bf565b610297565b6040516bffffffffffffffffffffffff19606084901b1660208201526034810182905260009060540160405160208183030381529060405280519060200120905092915050565b6000806101688585610114565b9050600061017582610297565b9050866001600160a01b031661018b82866101a0565b6001600160a01b031614979650505050505050565b6000806000806101af8561021f565b6040805160008152602081018083528b905260ff8316918101919091526060810184905260808101839052929550909350915060019060a0016020604051602081039080840390855afa15801561020a573d6000803e3d6000fd5b5050604051601f190151979650505050505050565b600080600083516041146102795760405162461bcd60e51b815260206004820152601860248201527f696e76616c6964207369676e6174757265206c656e6774680000000000000000604482015260640160405180910390fd5b50505060208101516040820151606090920151909260009190911a90565b6040517f19457468657265756d205369676e6564204d6573736167653a0a3332000000006020820152603c8101829052600090605c01604051602081830303815290604052805190602001209050919050565b80356001600160a01b038116811461030157600080fd5b919050565b6000806040838503121561031957600080fd5b610322836102ea565b946020939093013593505050565b634e487b7160e01b600052604160045260246000fd5b600082601f83011261035757600080fd5b813567ffffffffffffffff8082111561037257610372610330565b604051601f8301601f19908116603f0116810190828211818310171561039a5761039a610330565b816040528381528660208588010111156103b357600080fd5b836020870160208301376000602085830101528094505050505092915050565b600080600080608085870312156103e957600080fd5b6103f2856102ea565b9350610400602086016102ea565b925060408501359150606085013567ffffffffffffffff81111561042357600080fd5b61042f87828801610346565b91505092959194509250565b6000806040838503121561044e57600080fd5b82359150602083013567ffffffffffffffff81111561046c57600080fd5b61047885828601610346565b9150509250929050565b60006020828403121561049457600080fd5b813567ffffffffffffffff8111156104ab57600080fd5b6104b784828501610346565b949350505050565b6000602082840312156104d157600080fd5b503591905056fea26469706673582212207b06bd3264f45d524c27ded845efa2298d934ad60a90ee058741fea014d43e4e64736f6c63430008190033","linkReferences":{}},"methodIdentifiers":{"getEthSignedMessageHash(bytes32)":"fa540801","getMessageHash(address,uint256)":"512c91df","recoverSigner(bytes32,bytes)":"97aba7f9","splitSignature(bytes)":"a7bb5803","verify(address,address,uint256,bytes)":"93e9f8fc"},"id":27}