{"abi":[{"type":"constructor","inputs":[{"name":"beneficiaryAddress","type":"address","internalType":"address"},{"name":"durationSeconds","type":"uint256","internalType":"uint256"}],"stateMutability":"nonpayable"},{"type":"function","name":"beneficiary","inputs":[],"outputs":[{"name":"","type":"address","internalType":"address"}],"stateMutability":"view"},{"type":"function","name":"duration","inputs":[],"outputs":[{"name":"","type":"uint256","internalType":"uint256"}],"stateMutability":"view"},{"type":"function","name":"erc20Released","inputs":[{"name":"","type":"address","internalType":"address"}],"outputs":[{"name":"","type":"uint256","internalType":"uint256"}],"stateMutability":"view"},{"type":"function","name":"release","inputs":[{"name":"token","type":"address","internalType":"address"}],"outputs":[],"stateMutability":"nonpayable"},{"type":"function","name":"start","inputs":[],"outputs":[{"name":"","type":"uint256","internalType":"uint256"}],"stateMutability":"view"},{"type":"function","name":"vestedAmount","inputs":[{"name":"token","type":"address","internalType":"address"},{"name":"timestamp","type":"uint256","internalType":"uint256"}],"outputs":[{"name":"","type":"uint256","internalType":"uint256"}],"stateMutability":"view"},{"type":"event","name":"ERC20Released","inputs":[{"name":"token","type":"address","indexed":true,"internalType":"address"},{"name":"amount","type":"uint256","indexed":false,"internalType":"uint256"}],"anonymous":false}],"bytecode":{"object":"0x60e060405234801561001057600080fd5b5060405161069b38038061069b83398101604081905261002f916100b6565b6001600160a01b03821661009c5760405162461bcd60e51b815260206004820152602a60248201527f56657374696e6757616c6c65743a2062656e6566696369617279206973207a65604482015269726f206164647265737360b01b606482015260840160405180910390fd5b6001600160a01b039091166080524260a05260c0526100f0565b600080604083850312156100c957600080fd5b82516001600160a01b03811681146100e057600080fd5b6020939093015192949293505050565b60805160a05160c05161055461014760003960008181606c0152818161020c015261026101526000818161012d015281816101d70152818161022d015261028501526000818160ce015261038501526105546000f3fe608060405234801561001057600080fd5b50600436106100625760003560e01c80630fb5a6b41461006757806317cf5391146100a157806319165587146100b457806338af3eed146100c9578063bbc702c614610108578063be9a655514610128575b600080fd5b61008e7f000000000000000000000000000000000000000000000000000000000000000081565b6040519081526020015b60405180910390f35b61008e6100af366004610422565b61014f565b6100c76100c236600461044c565b6102c8565b005b6100f07f000000000000000000000000000000000000000000000000000000000000000081565b6040516001600160a01b039091168152602001610098565b61008e61011636600461044c565b60006020819052908152604090205481565b61008e7f000000000000000000000000000000000000000000000000000000000000000081565b6001600160a01b0382166000818152602081905260408082205490516370a0823160e01b8152306004820152919283926370a0823190602401602060405180830381865afa1580156101a5573d6000803e3d6000fd5b505050506040513d601f19601f820116820180604052508101906101c9919061046e565b6101d3919061049d565b90507f00000000000000000000000000000000000000000000000000000000000000008310156102075760009150506102c2565b6102517f00000000000000000000000000000000000000000000000000000000000000007f000000000000000000000000000000000000000000000000000000000000000061049d565b83111561025f5790506102c2565b7f00000000000000000000000000000000000000000000000000000000000000006102aa7f0000000000000000000000000000000000000000000000000000000000000000856104b0565b6102b490836104c3565b6102be91906104da565b9150505b92915050565b6001600160a01b0381166000908152602081905260408120546102eb834261014f565b6102f591906104b0565b905080600080846001600160a01b03166001600160a01b03168152602001908152602001600020600082825461032b919061049d565b90915550506040518181526001600160a01b038316907fc0e523490dd523c33b1878c9eb14ff46991e3f5b2cd33710918618f2a39cba1b9060200160405180910390a260405163a9059cbb60e01b81526001600160a01b037f0000000000000000000000000000000000000000000000000000000000000000811660048301526024820183905283169063a9059cbb906044016020604051808303816000875af11580156103dd573d6000803e3d6000fd5b505050506040513d601f19601f8201168201806040525081019061040191906104fc565b505050565b80356001600160a01b038116811461041d57600080fd5b919050565b6000806040838503121561043557600080fd5b61043e83610406565b946020939093013593505050565b60006020828403121561045e57600080fd5b61046782610406565b9392505050565b60006020828403121561048057600080fd5b5051919050565b634e487b7160e01b600052601160045260246000fd5b808201808211156102c2576102c2610487565b818103818111156102c2576102c2610487565b80820281158282048414176102c2576102c2610487565b6000826104f757634e487b7160e01b600052601260045260246000fd5b500490565b60006020828403121561050e57600080fd5b8151801515811461046757600080fdfea264697066735822122023e08fded3bd7a71c0613c6654f76f29c07c14e00e64ac583e83c3d56b065d3c64736f6c63430008190033","linkReferences":{}},"methodIdentifiers":{"beneficiary()":"38af3eed","duration()":"0fb5a6b4","erc20Released(address)":"bbc702c6","release(address)":"19165587","start()":"be9a6555","vestedAmount(address,uint256)":"17cf5391"},"id":23}