{"abi":[{"type":"constructor","inputs":[{"name":"name_","type":"string","internalType":"string"},{"name":"symbol_","type":"string","internalType":"string"}],"stateMutability":"nonpayable"},{"type":"function","name":"balanceOf","inputs":[{"name":"account","type":"address","internalType":"address"},{"name":"id","type":"uint256","internalType":"uint256"}],"outputs":[{"name":"","type":"uint256","internalType":"uint256"}],"stateMutability":"view"},{"type":"function","name":"balanceOfBatch","inputs":[{"name":"accounts","type":"address[]","internalType":"address[]"},{"name":"ids","type":"uint256[]","internalType":"uint256[]"}],"outputs":[{"name":"","type":"uint256[]","internalType":"uint256[]"}],"stateMutability":"view"},{"type":"function","name":"isApprovedForAll","inputs":[{"name":"account","type":"address","internalType":"address"},{"name":"operator","type":"address","internalType":"address"}],"outputs":[{"name":"","type":"bool","internalType":"bool"}],"stateMutability":"view"},{"type":"function","name":"name","inputs":[],"outputs":[{"name":"","type":"string","internalType":"string"}],"stateMutability":"view"},{"type":"function","name":"safeBatchTransferFrom","inputs":[{"name":"from","type":"address","internalType":"address"},{"name":"to","type":"address","internalType":"address"},{"name":"ids","type":"uint256[]","internalType":"uint256[]"},{"name":"amounts","type":"uint256[]","internalType":"uint256[]"},{"name":"data","type":"bytes","internalType":"bytes"}],"outputs":[],"stateMutability":"nonpayable"},{"type":"function","name":"safeTransferFrom","inputs":[{"name":"from","type":"address","internalType":"address"},{"name":"to","type":"address","internalType":"address"},{"name":"id","type":"uint256","internalType":"uint256"},{"name":"amount","type":"uint256","internalType":"uint256"},{"name":"data","type":"bytes","internalType":"bytes"}],"outputs":[],"stateMutability":"nonpayable"},{"type":"function","name":"setApprovalForAll","inputs":[{"name":"operator","type":"address","internalType":"address"},{"name":"approved","type":"bool","internalType":"bool"}],"outputs":[],"stateMutability":"nonpayable"},{"type":"function","name":"supportsInterface","inputs":[{"name":"interfaceId","type":"bytes4","internalType":"bytes4"}],"outputs":[{"name":"","type":"bool","internalType":"bool"}],"stateMutability":"view"},{"type":"function","name":"symbol","inputs":[],"outputs":[{"name":"","type":"string","internalType":"string"}],"stateMutability":"view"},{"type":"function","name":"uri","inputs":[{"name":"id","type":"uint256","internalType":"uint256"}],"outputs":[{"name":"","type":"string","internalType":"string"}],"stateMutability":"view"},{"type":"event","name":"ApprovalForAll","inputs":[{"name":"account","type":"address","indexed":true,"internalType":"address"},{"name":"operator","type":"address","indexed":true,"internalType":"address"},{"name":"approved","type":"bool","indexed":false,"internalType":"bool"}],"anonymous":false},{"type":"event","name":"TransferBatch","inputs":[{"name":"operator","type":"address","indexed":true,"internalType":"address"},{"name":"from","type":"address","indexed":true,"internalType":"address"},{"name":"to","type":"address","indexed":true,"internalType":"address"},{"name":"ids","type":"uint256[]","indexed":false,"internalType":"uint256[]"},{"name":"values","type":"uint256[]","indexed":false,"internalType":"uint256[]"}],"anonymous":false},{"type":"event","name":"TransferSingle","inputs":[{"name":"operator","type":"address","indexed":true,"internalType":"address"},{"name":"from","type":"address","indexed":true,"internalType":"address"},{"name":"to","type":"address","indexed":true,"internalType":"address"},{"name":"id","type":"uint256","indexed":false,"internalType":"uint256"},{"name":"value","type":"uint256","indexed":false,"internalType":"uint256"}],"anonymous":false},{"type":"event","name":"URI","inputs":[{"name":"value","type":"string","indexed":false,"internalType":"string"},{"name":"id","type":"uint256","indexed":true,"internalType":"uint256"}],"anonymous":false}],"bytecode":{"object":"0x608060405234801561001057600080fd5b506040516117c83803806117c883398101604081905261002f9161010e565b600061003b83826101fc565b50600161004882826101fc565b5050506102bb565b634e487b7160e01b600052604160045260246000fd5b600082601f83011261007757600080fd5b81516001600160401b038082111561009157610091610050565b604051601f8301601f19908116603f011681019082821181831017156100b9576100b9610050565b81604052838152602092508660208588010111156100d657600080fd5b600091505b838210156100f857858201830151818301840152908201906100db565b6000602085830101528094505050505092915050565b6000806040838503121561012157600080fd5b82516001600160401b038082111561013857600080fd5b61014486838701610066565b9350602085015191508082111561015a57600080fd5b5061016785828601610066565b9150509250929050565b600181811c9082168061018557607f821691505b6020821081036101a557634e487b7160e01b600052602260045260246000fd5b50919050565b601f8211156101f7576000816000526020600020601f850160051c810160208610156101d45750805b601f850160051c820191505b818110156101f3578281556001016101e0565b5050505b505050565b81516001600160401b0381111561021557610215610050565b610229816102238454610171565b846101ab565b602080601f83116001811461025e57600084156102465750858301515b600019600386901b1c1916600185901b1785556101f3565b600085815260208120601f198616915b8281101561028d5788860151825594840194600190910190840161026e565b50858210156102ab5787850151600019600388901b60f8161c191681555b5050505050600190811b01905550565b6114fe806102ca6000396000f3fe608060405234801561001057600080fd5b506004361061009d5760003560e01c80634e1273f4116100665780634e1273f41461012857806395d89b4114610148578063a22cb46514610150578063e985e9c514610163578063f242432a1461017657600080fd5b8062fdd58e146100a257806301ffc9a7146100c857806306fdde03146100eb5780630e89341c146101005780632eb2c2d614610113575b600080fd5b6100b56100b0366004610c37565b610189565b6040519081526020015b60405180910390f35b6100db6100d6366004610c7a565b610224565b60405190151581526020016100bf565b6100f3610275565b6040516100bf9190610ce7565b6100f361010e366004610cfa565b610303565b610126610121366004610e64565b61036e565b005b61013b610136366004610f0e565b61057f565b6040516100bf9190611015565b6100f36106a1565b61012661015e366004611028565b6106ae565b6100db610171366004611064565b610784565b610126610184366004611097565b6107b2565b60006001600160a01b0383166101f95760405162461bcd60e51b815260206004820152602a60248201527f455243313135353a2061646472657373207a65726f206973206e6f742061207660448201526930b634b21037bbb732b960b11b60648201526084015b60405180910390fd5b5060008181526002602090815260408083206001600160a01b03861684529091529020545b92915050565b60006001600160e01b03198216636cdb3d1360e11b148061025557506001600160e01b031982166303a24d0760e21b145b8061021e57506001600160e01b031982166301ffc9a760e01b1492915050565b60008054610282906110fc565b80601f01602080910402602001604051908101604052809291908181526020018280546102ae906110fc565b80156102fb5780601f106102d0576101008083540402835291602001916102fb565b820191906000526020600020905b8154815290600101906020018083116102de57829003601f168201915b505050505081565b6060600061031c60408051602081019091526000815290565b9050600081511161033c5760405180602001604052806000815250610367565b80610346846108fc565b604051602001610357929190611136565b6040516020818303038152906040525b9392505050565b336001600160a01b03861681148061038b575061038b8682610784565b6103a75760405162461bcd60e51b81526004016101f090611165565b82518451146104095760405162461bcd60e51b815260206004820152602860248201527f455243313135353a2069647320616e6420616d6f756e7473206c656e677468206044820152670dad2e6dac2e8c6d60c31b60648201526084016101f0565b6001600160a01b03851661042f5760405162461bcd60e51b81526004016101f0906111b4565b60005b845181101561051157600085828151811061044f5761044f6111f9565b60200260200101519050600085838151811061046d5761046d6111f9565b60209081029190910181015160008481526002835260408082206001600160a01b038e1683529093529190912054909150818110156104be5760405162461bcd60e51b81526004016101f09061120f565b60008381526002602090815260408083206001600160a01b038e8116855292528083208585039055908b168252812080548492906104fd90849061126f565b909155505060019093019250610432915050565b50846001600160a01b0316866001600160a01b0316826001600160a01b03167f4a39dc06d4c0dbc64b70af90fd698a233a518aa5d07e595d983b8c0526c8f7fb8787604051610561929190611282565b60405180910390a4610577818787878787610a05565b505050505050565b606081518351146105e45760405162461bcd60e51b815260206004820152602960248201527f455243313135353a206163636f756e747320616e6420696473206c656e677468604482015268040dad2e6dac2e8c6d60bb1b60648201526084016101f0565b6000835167ffffffffffffffff81111561060057610600610d13565b604051908082528060200260200182016040528015610629578160200160208202803683370190505b50905060005b84518110156106995761067485828151811061064d5761064d6111f9565b6020026020010151858381518110610667576106676111f9565b6020026020010151610189565b828281518110610686576106866111f9565b602090810291909101015260010161062f565b509392505050565b60018054610282906110fc565b6001600160a01b03821633036107185760405162461bcd60e51b815260206004820152602960248201527f455243313135353a2073657474696e6720617070726f76616c20737461747573604482015268103337b91039b2b63360b91b60648201526084016101f0565b3360008181526003602090815260408083206001600160a01b03871680855290835292819020805460ff191686151590811790915590519081529192917f17307eab39ab6107e8899845ad3d59bd9653f200f220920489ca2b5937696c31910160405180910390a35050565b6001600160a01b03918216600090815260036020908152604080832093909416825291909152205460ff1690565b336001600160a01b0386168114806107cf57506107cf8682610784565b6107eb5760405162461bcd60e51b81526004016101f090611165565b6001600160a01b0385166108115760405162461bcd60e51b81526004016101f0906111b4565b60008481526002602090815260408083206001600160a01b038a168452909152902054838110156108545760405162461bcd60e51b81526004016101f09061120f565b60008581526002602090815260408083206001600160a01b038b811685529252808320878503905590881682528120805486929061089390849061126f565b909155505060408051868152602081018690526001600160a01b03808916928a821692918616917fc3d58168c5ae7397731d063d5bbf3d657854427343f4c083240f7aacaa2d0f62910160405180910390a46108f3828888888888610b60565b50505050505050565b6060816000036109235750506040805180820190915260018152600360fc1b602082015290565b8160005b811561094d5780610937816112b0565b91506109469050600a836112df565b9150610927565b60008167ffffffffffffffff81111561096857610968610d13565b6040519080825280601f01601f191660200182016040528015610992576020820181803683370190505b5090505b84156109fd576109a76001836112f3565b91506109b4600a86611306565b6109bf90603061126f565b60f81b8183815181106109d4576109d46111f9565b60200101906001600160f81b031916908160001a9053506109f6600a866112df565b9450610996565b949350505050565b6001600160a01b0384163b156105775760405163bc197c8160e01b81526001600160a01b0385169063bc197c8190610a49908990899088908890889060040161131a565b6020604051808303816000875af1925050508015610a84575060408051601f3d908101601f19168201909252610a8191810190611378565b60015b610b3057610a90611395565b806308c379a003610ac95750610aa46113b1565b80610aaf5750610acb565b8060405162461bcd60e51b81526004016101f09190610ce7565b505b60405162461bcd60e51b815260206004820152603460248201527f455243313135353a207472616e7366657220746f206e6f6e2d455243313135356044820152732932b1b2b4bb32b91034b6b83632b6b2b73a32b960611b60648201526084016101f0565b6001600160e01b0319811663bc197c8160e01b146108f35760405162461bcd60e51b81526004016101f09061143b565b6001600160a01b0384163b156105775760405163f23a6e6160e01b81526001600160a01b0385169063f23a6e6190610ba49089908990889088908890600401611483565b6020604051808303816000875af1925050508015610bdf575060408051601f3d908101601f19168201909252610bdc91810190611378565b60015b610beb57610a90611395565b6001600160e01b0319811663f23a6e6160e01b146108f35760405162461bcd60e51b81526004016101f09061143b565b80356001600160a01b0381168114610c3257600080fd5b919050565b60008060408385031215610c4a57600080fd5b610c5383610c1b565b946020939093013593505050565b6001600160e01b031981168114610c7757600080fd5b50565b600060208284031215610c8c57600080fd5b813561036781610c61565b60005b83811015610cb2578181015183820152602001610c9a565b50506000910152565b60008151808452610cd3816020860160208601610c97565b601f01601f19169290920160200192915050565b6020815260006103676020830184610cbb565b600060208284031215610d0c57600080fd5b5035919050565b634e487b7160e01b600052604160045260246000fd5b601f8201601f1916810167ffffffffffffffff81118282101715610d4f57610d4f610d13565b6040525050565b600067ffffffffffffffff821115610d7057610d70610d13565b5060051b60200190565b600082601f830112610d8b57600080fd5b81356020610d9882610d56565b604051610da58282610d29565b80915083815260208101915060208460051b870101935086841115610dc957600080fd5b602086015b84811015610de55780358352918301918301610dce565b509695505050505050565b600082601f830112610e0157600080fd5b813567ffffffffffffffff811115610e1b57610e1b610d13565b604051610e32601f8301601f191660200182610d29565b818152846020838601011115610e4757600080fd5b816020850160208301376000918101602001919091529392505050565b600080600080600060a08688031215610e7c57600080fd5b610e8586610c1b565b9450610e9360208701610c1b565b9350604086013567ffffffffffffffff80821115610eb057600080fd5b610ebc89838a01610d7a565b94506060880135915080821115610ed257600080fd5b610ede89838a01610d7a565b93506080880135915080821115610ef457600080fd5b50610f0188828901610df0565b9150509295509295909350565b60008060408385031215610f2157600080fd5b823567ffffffffffffffff80821115610f3957600080fd5b818501915085601f830112610f4d57600080fd5b81356020610f5a82610d56565b604051610f678282610d29565b83815260059390931b8501820192828101915089841115610f8757600080fd5b948201945b83861015610fac57610f9d86610c1b565b82529482019490820190610f8c565b96505086013592505080821115610fc257600080fd5b50610fcf85828601610d7a565b9150509250929050565b60008151808452602080850194506020840160005b8381101561100a57815187529582019590820190600101610fee565b509495945050505050565b6020815260006103676020830184610fd9565b6000806040838503121561103b57600080fd5b61104483610c1b565b91506020830135801515811461105957600080fd5b809150509250929050565b6000806040838503121561107757600080fd5b61108083610c1b565b915061108e60208401610c1b565b90509250929050565b600080600080600060a086880312156110af57600080fd5b6110b886610c1b565b94506110c660208701610c1b565b93506040860135925060608601359150608086013567ffffffffffffffff8111156110f057600080fd5b610f0188828901610df0565b600181811c9082168061111057607f821691505b60208210810361113057634e487b7160e01b600052602260045260246000fd5b50919050565b60008351611148818460208801610c97565b83519083019061115c818360208801610c97565b01949350505050565b6020808252602f908201527f455243313135353a2063616c6c6572206973206e6f7420746f6b656e206f776e60408201526e195c881b9bdc88185c1c1c9bdd9959608a1b606082015260800190565b60208082526025908201527f455243313135353a207472616e7366657220746f20746865207a65726f206164604082015264647265737360d81b606082015260800190565b634e487b7160e01b600052603260045260246000fd5b6020808252602a908201527f455243313135353a20696e73756666696369656e742062616c616e636520666f60408201526939103a3930b739b332b960b11b606082015260800190565b634e487b7160e01b600052601160045260246000fd5b8082018082111561021e5761021e611259565b6040815260006112956040830185610fd9565b82810360208401526112a78185610fd9565b95945050505050565b6000600182016112c2576112c2611259565b5060010190565b634e487b7160e01b600052601260045260246000fd5b6000826112ee576112ee6112c9565b500490565b8181038181111561021e5761021e611259565b600082611315576113156112c9565b500690565b6001600160a01b0386811682528516602082015260a06040820181905260009061134690830186610fd9565b82810360608401526113588186610fd9565b9050828103608084015261136c8185610cbb565b98975050505050505050565b60006020828403121561138a57600080fd5b815161036781610c61565b600060033d11156113ae5760046000803e5060005160e01c5b90565b600060443d10156113bf5790565b6040516003193d81016004833e81513d67ffffffffffffffff81602484011181841117156113ef57505050505090565b82850191508151818111156114075750505050505090565b843d87010160208285010111156114215750505050505090565b61143060208286010187610d29565b509095945050505050565b60208082526028908201527f455243313135353a204552433131353552656365697665722072656a656374656040820152676420746f6b656e7360c01b606082015260800190565b6001600160a01b03868116825285166020820152604081018490526060810183905260a0608082018190526000906114bd90830184610cbb565b97965050505050505056fea264697066735822122062022bcee08631ead752eddbb158b0da4e8ff2c058359865eeabbec54976ecee64736f6c63430008190033","linkReferences":{}},"methodIdentifiers":{"balanceOf(address,uint256)":"00fdd58e","balanceOfBatch(address[],uint256[])":"4e1273f4","isApprovedForAll(address,address)":"e985e9c5","name()":"06fdde03","safeBatchTransferFrom(address,address,uint256[],uint256[],bytes)":"2eb2c2d6","safeTransferFrom(address,address,uint256,uint256,bytes)":"f242432a","setApprovalForAll(address,bool)":"a22cb465","supportsInterface(bytes4)":"01ffc9a7","symbol()":"95d89b41","uri(uint256)":"0e89341c"},"id":22}