{"abi":[{"type":"constructor","inputs":[{"name":"name_","type":"string","internalType":"string"},{"name":"symbol_","type":"string","internalType":"string"}],"stateMutability":"nonpayable"},{"type":"function","name":"MAX_APES","inputs":[],"outputs":[{"name":"","type":"uint256","internalType":"uint256"}],"stateMutability":"view"},{"type":"function","name":"approve","inputs":[{"name":"to","type":"address","internalType":"address"},{"name":"tokenId","type":"uint256","internalType":"uint256"}],"outputs":[],"stateMutability":"nonpayable"},{"type":"function","name":"balanceOf","inputs":[{"name":"owner","type":"address","internalType":"address"}],"outputs":[{"name":"","type":"uint256","internalType":"uint256"}],"stateMutability":"view"},{"type":"function","name":"getApproved","inputs":[{"name":"tokenId","type":"uint256","internalType":"uint256"}],"outputs":[{"name":"","type":"address","internalType":"address"}],"stateMutability":"view"},{"type":"function","name":"isApprovedForAll","inputs":[{"name":"owner","type":"address","internalType":"address"},{"name":"operator","type":"address","internalType":"address"}],"outputs":[{"name":"","type":"bool","internalType":"bool"}],"stateMutability":"view"},{"type":"function","name":"mint","inputs":[{"name":"to","type":"address","internalType":"address"},{"name":"tokenId","type":"uint256","internalType":"uint256"}],"outputs":[],"stateMutability":"nonpayable"},{"type":"function","name":"name","inputs":[],"outputs":[{"name":"","type":"string","internalType":"string"}],"stateMutability":"view"},{"type":"function","name":"ownerOf","inputs":[{"name":"tokenId","type":"uint256","internalType":"uint256"}],"outputs":[{"name":"owner","type":"address","internalType":"address"}],"stateMutability":"view"},{"type":"function","name":"safeTransferFrom","inputs":[{"name":"from","type":"address","internalType":"address"},{"name":"to","type":"address","internalType":"address"},{"name":"tokenId","type":"uint256","internalType":"uint256"}],"outputs":[],"stateMutability":"nonpayable"},{"type":"function","name":"safeTransferFrom","inputs":[{"name":"from","type":"address","internalType":"address"},{"name":"to","type":"address","internalType":"address"},{"name":"tokenId","type":"uint256","internalType":"uint256"},{"name":"_data","type":"bytes","internalType":"bytes"}],"outputs":[],"stateMutability":"nonpayable"},{"type":"function","name":"setApprovalForAll","inputs":[{"name":"operator","type":"address","internalType":"address"},{"name":"approved","type":"bool","internalType":"bool"}],"outputs":[],"stateMutability":"nonpayable"},{"type":"function","name":"supportsInterface","inputs":[{"name":"interfaceId","type":"bytes4","internalType":"bytes4"}],"outputs":[{"name":"","type":"bool","internalType":"bool"}],"stateMutability":"pure"},{"type":"function","name":"symbol","inputs":[],"outputs":[{"name":"","type":"string","internalType":"string"}],"stateMutability":"view"},{"type":"function","name":"tokenURI","inputs":[{"name":"tokenId","type":"uint256","internalType":"uint256"}],"outputs":[{"name":"","type":"string","internalType":"string"}],"stateMutability":"view"},{"type":"function","name":"transferFrom","inputs":[{"name":"from","type":"address","internalType":"address"},{"name":"to","type":"address","internalType":"address"},{"name":"tokenId","type":"uint256","internalType":"uint256"}],"outputs":[],"stateMutability":"nonpayable"},{"type":"event","name":"Approval","inputs":[{"name":"owner","type":"address","indexed":true,"internalType":"address"},{"name":"approved","type":"address","indexed":true,"internalType":"address"},{"name":"tokenId","type":"uint256","indexed":true,"internalType":"uint256"}],"anonymous":false},{"type":"event","name":"ApprovalForAll","inputs":[{"name":"owner","type":"address","indexed":true,"internalType":"address"},{"name":"operator","type":"address","indexed":true,"internalType":"address"},{"name":"approved","type":"bool","indexed":false,"internalType":"bool"}],"anonymous":false},{"type":"event","name":"Transfer","inputs":[{"name":"from","type":"address","indexed":true,"internalType":"address"},{"name":"to","type":"address","indexed":true,"internalType":"address"},{"name":"tokenId","type":"uint256","indexed":true,"internalType":"uint256"}],"anonymous":false}],"bytecode":{"object":"0x608060405261271060065534801561001657600080fd5b5060405161149238038061149283398101604081905261003591610118565b818160006100438382610206565b5060016100508282610206565b50505050506102c5565b634e487b7160e01b600052604160045260246000fd5b600082601f83011261008157600080fd5b81516001600160401b038082111561009b5761009b61005a565b604051601f8301601f19908116603f011681019082821181831017156100c3576100c361005a565b81604052838152602092508660208588010111156100e057600080fd5b600091505b8382101561010257858201830151818301840152908201906100e5565b6000602085830101528094505050505092915050565b6000806040838503121561012b57600080fd5b82516001600160401b038082111561014257600080fd5b61014e86838701610070565b9350602085015191508082111561016457600080fd5b5061017185828601610070565b9150509250929050565b600181811c9082168061018f57607f821691505b6020821081036101af57634e487b7160e01b600052602260045260246000fd5b50919050565b601f821115610201576000816000526020600020601f850160051c810160208610156101de5750805b601f850160051c820191505b818110156101fd578281556001016101ea565b5050505b505050565b81516001600160401b0381111561021f5761021f61005a565b6102338161022d845461017b565b846101b5565b602080601f83116001811461026857600084156102505750858301515b600019600386901b1c1916600185901b1785556101fd565b600085815260208120601f198616915b8281101561029757888601518255948401946001909101908401610278565b50858210156102b55787850151600019600388901b60f8161c191681555b5050505050600190811b01905550565b6111be806102d46000396000f3fe608060405234801561001057600080fd5b50600436106100f55760003560e01c80636352211e11610097578063b88d4fde11610066578063b88d4fde146101ff578063bb8a16bd14610212578063c87b56dd1461021b578063e985e9c51461022e57600080fd5b80636352211e146101b057806370a08231146101c357806395d89b41146101e4578063a22cb465146101ec57600080fd5b8063095ea7b3116100d3578063095ea7b31461016257806323b872dd1461017757806340c10f191461018a57806342842e0e1461019d57600080fd5b806301ffc9a7146100fa57806306fdde0314610122578063081812fc14610137575b600080fd5b61010d610108366004610d54565b61026a565b60405190151581526020015b60405180910390f35b61012a6102bc565b6040516101199190610dc1565b61014a610145366004610dd4565b61034a565b6040516001600160a01b039091168152602001610119565b610175610170366004610e04565b6103c5565b005b610175610185366004610e2e565b61046a565b610175610198366004610e04565b6104d9565b6101756101ab366004610e2e565b61052f565b61014a6101be366004610dd4565b61054a565b6101d66101d1366004610e6a565b6105aa565b604051908152602001610119565b61012a610615565b6101756101fa366004610e85565b610622565b61017561020d366004610ed7565b61068e565b6101d660065481565b61012a610229366004610dd4565b6106ff565b61010d61023c366004610fb3565b6001600160a01b03918216600090815260056020908152604080832093909416825291909152205460ff1690565b60006001600160e01b031982166380ac58cd60e01b148061029b57506001600160e01b031982166301ffc9a760e01b145b806102b657506001600160e01b03198216635b5e139f60e01b145b92915050565b600080546102c990610fe6565b80601f01602080910402602001604051908101604052809291908181526020018280546102f590610fe6565b80156103425780601f1061031757610100808354040283529160200191610342565b820191906000526020600020905b81548152906001019060200180831161032557829003601f168201915b505050505081565b6000818152600260205260408120546001600160a01b03166103a95760405162461bcd60e51b81526020600482015260136024820152721d1bdad95b88191bd95cdb89dd08195e1a5cdd606a1b60448201526064015b60405180910390fd5b506000908152600460205260409020546001600160a01b031690565b6000818152600260205260409020546001600160a01b03163381148061040e57506001600160a01b038116600090815260056020908152604080832033845290915290205460ff165b61045a5760405162461bcd60e51b815260206004820152601e60248201527f6e6f74206f776e6572206e6f7220617070726f76656420666f7220616c6c000060448201526064016103a0565b6104658184846107b4565b505050565b60006104758261054a565b9050610482813384610810565b6104c75760405162461bcd60e51b81526020600482015260166024820152751b9bdd081bdddb995c881b9bdc88185c1c1c9bdd995960521b60448201526064016103a0565b6104d381858585610883565b50505050565b60065481106105215760405162461bcd60e51b8152602060048201526014602482015273746f6b656e4964206f7574206f662072616e676560601b60448201526064016103a0565b61052b82826109eb565b5050565b6104658383836040518060200160405280600081525061068e565b6000818152600260205260409020546001600160a01b0316806105a55760405162461bcd60e51b81526020600482015260136024820152721d1bdad95b88191bd95cdb89dd08195e1a5cdd606a1b60448201526064016103a0565b919050565b60006001600160a01b0382166105f95760405162461bcd60e51b81526020600482015260146024820152736f776e6572203d207a65726f206164647265737360601b60448201526064016103a0565b506001600160a01b031660009081526003602052604090205490565b600180546102c990610fe6565b3360008181526005602090815260408083206001600160a01b03871680855290835292819020805460ff191686151590811790915590519081529192917f17307eab39ab6107e8899845ad3d59bd9653f200f220920489ca2b5937696c31910160405180910390a35050565b60006106998361054a565b90506106a6813385610810565b6106eb5760405162461bcd60e51b81526020600482015260166024820152751b9bdd081bdddb995c881b9bdc88185c1c1c9bdd995960521b60448201526064016103a0565b6106f88186868686610b1b565b5050505050565b6000818152600260205260409020546060906001600160a01b03166107585760405162461bcd60e51b815260206004820152600f60248201526e151bdad95b88139bdd08115e1a5cdd608a1b60448201526064016103a0565b6000610762610b74565b9050600081511161078257604051806020016040528060008152506107ad565b8061078c84610b94565b60405160200161079d929190611020565b6040516020818303038152906040525b9392505050565b60008181526004602052604080822080546001600160a01b0319166001600160a01b0386811691821790925591518493918716917f8c5be1e5ebec7d5bd14f71427d1e84f3dd0314c0f7b2291e5b200ac8c7c3b92591a4505050565b6000836001600160a01b0316836001600160a01b0316148061084b57506000828152600460205260409020546001600160a01b038481169116145b8061087b57506001600160a01b0380851660009081526005602090815260408083209387168352929052205460ff165b949350505050565b836001600160a01b0316836001600160a01b0316146108d05760405162461bcd60e51b81526020600482015260096024820152683737ba1037bbb732b960b91b60448201526064016103a0565b6001600160a01b0382166109265760405162461bcd60e51b815260206004820152601c60248201527f7472616e7366657220746f20746865207a65726f20616464726573730000000060448201526064016103a0565b610932846000836107b4565b6001600160a01b038316600090815260036020526040812080546001929061095b908490611065565b90915550506001600160a01b0382166000908152600360205260408120805460019290610989908490611078565b909155505060008181526002602052604080822080546001600160a01b0319166001600160a01b0386811691821790925591518493918716917fddf252ad1be2c89b69c2b068fc378daa952ba7f163c4a11628f55a4df523b3ef91a450505050565b6001600160a01b038216610a385760405162461bcd60e51b81526020600482015260146024820152736d696e7420746f207a65726f206164647265737360601b60448201526064016103a0565b6000818152600260205260409020546001600160a01b031615610a945760405162461bcd60e51b81526020600482015260146024820152731d1bdad95b88185b1c9958591e481b5a5b9d195960621b60448201526064016103a0565b6001600160a01b0382166000908152600360205260408120805460019290610abd908490611078565b909155505060008181526002602052604080822080546001600160a01b0319166001600160a01b03861690811790915590518392907fddf252ad1be2c89b69c2b068fc378daa952ba7f163c4a11628f55a4df523b3ef908290a45050565b610b2785858585610883565b610b3384848484610c95565b6106f85760405162461bcd60e51b81526020600482015260126024820152713737ba1022a9219b9918a932b1b2b4bb32b960711b60448201526064016103a0565b606060405180606001604052806036815260200161115360369139905090565b606081600003610bbb5750506040805180820190915260018152600360fc1b602082015290565b8160005b8115610be55780610bcf8161108b565b9150610bde9050600a836110ba565b9150610bbf565b60008167ffffffffffffffff811115610c0057610c00610ec1565b6040519080825280601f01601f191660200182016040528015610c2a576020820181803683370190505b5090505b841561087b57610c3f600183611065565b9150610c4c600a866110ce565b610c57906030611078565b60f81b818381518110610c6c57610c6c6110e2565b60200101906001600160f81b031916908160001a905350610c8e600a866110ba565b9450610c2e565b60006001600160a01b0384163b15610d3057604051630a85bd0160e11b808252906001600160a01b0386169063150b7a0290610cdb9033908a90899089906004016110f8565b6020604051808303816000875af1158015610cfa573d6000803e3d6000fd5b505050506040513d601f19601f82011682018060405250810190610d1e9190611135565b6001600160e01b03191614905061087b565b506001949350505050565b6001600160e01b031981168114610d5157600080fd5b50565b600060208284031215610d6657600080fd5b81356107ad81610d3b565b60005b83811015610d8c578181015183820152602001610d74565b50506000910152565b60008151808452610dad816020860160208601610d71565b601f01601f19169290920160200192915050565b6020815260006107ad6020830184610d95565b600060208284031215610de657600080fd5b5035919050565b80356001600160a01b03811681146105a557600080fd5b60008060408385031215610e1757600080fd5b610e2083610ded565b946020939093013593505050565b600080600060608486031215610e4357600080fd5b610e4c84610ded565b9250610e5a60208501610ded565b9150604084013590509250925092565b600060208284031215610e7c57600080fd5b6107ad82610ded565b60008060408385031215610e9857600080fd5b610ea183610ded565b915060208301358015158114610eb657600080fd5b809150509250929050565b634e487b7160e01b600052604160045260246000fd5b60008060008060808587031215610eed57600080fd5b610ef685610ded565b9350610f0460208601610ded565b925060408501359150606085013567ffffffffffffffff80821115610f2857600080fd5b818701915087601f830112610f3c57600080fd5b813581811115610f4e57610f4e610ec1565b604051601f8201601f19908116603f01168101908382118183101715610f7657610f76610ec1565b816040528281528a6020848701011115610f8f57600080fd5b82602086016020830137600060208483010152809550505050505092959194509250565b60008060408385031215610fc657600080fd5b610fcf83610ded565b9150610fdd60208401610ded565b90509250929050565b600181811c90821680610ffa57607f821691505b60208210810361101a57634e487b7160e01b600052602260045260246000fd5b50919050565b60008351611032818460208801610d71565b835190830190611046818360208801610d71565b01949350505050565b634e487b7160e01b600052601160045260246000fd5b818103818111156102b6576102b661104f565b808201808211156102b6576102b661104f565b60006001820161109d5761109d61104f565b5060010190565b634e487b7160e01b600052601260045260246000fd5b6000826110c9576110c96110a4565b500490565b6000826110dd576110dd6110a4565b500690565b634e487b7160e01b600052603260045260246000fd5b6001600160a01b038581168252841660208201526040810183905260806060820181905260009061112b90830184610d95565b9695505050505050565b60006020828403121561114757600080fd5b81516107ad81610d3b56fe697066733a2f2f516d65536a53696e4870506e6d586d73704d6a776958794e367a533445397a63636172694752336a7863615774712fa2646970667358221220935f4218fb6b780230ea7016215861b7730e0da76ca0a3ed493ccfffb042e1be64736f6c63430008190033","linkReferences":{}},"methodIdentifiers":{"MAX_APES()":"bb8a16bd","approve(address,uint256)":"095ea7b3","balanceOf(address)":"70a08231","getApproved(uint256)":"081812fc","isApprovedForAll(address,address)":"e985e9c5","mint(address,uint256)":"40c10f19","name()":"06fdde03","ownerOf(uint256)":"6352211e","safeTransferFrom(address,address,uint256)":"42842e0e","safeTransferFrom(address,address,uint256,bytes)":"b88d4fde","setApprovalForAll(address,bool)":"a22cb465","supportsInterface(bytes4)":"01ffc9a7","symbol()":"95d89b41","tokenURI(uint256)":"c87b56dd","transferFrom(address,address,uint256)":"23b872dd"},"id":32}