{"abi":[{"type":"function","name":"getSum","inputs":[{"name":"_arr","type":"uint256[]","internalType":"uint256[]"}],"outputs":[{"name":"sum","type":"uint256","internalType":"uint256"}],"stateMutability":"pure"},{"type":"function","name":"multiTransferETH","inputs":[{"name":"_addresses","type":"address[]","internalType":"address payable[]"},{"name":"_amounts","type":"uint256[]","internalType":"uint256[]"}],"outputs":[],"stateMutability":"payable"},{"type":"function","name":"multiTransferToken","inputs":[{"name":"_token","type":"address","internalType":"address"},{"name":"_addresses","type":"address[]","internalType":"address[]"},{"name":"_amounts","type":"uint256[]","internalType":"uint256[]"}],"outputs":[],"stateMutability":"nonpayable"},{"type":"function","name":"withdrawFromFailList","inputs":[{"name":"_to","type":"address","internalType":"address"}],"outputs":[],"stateMutability":"nonpayable"}],"bytecode":{"object":"0x6080604052348015600f57600080fd5b506108218061001f6000396000f3fe60806040526004361061003f5760003560e01c806341ed24a21461004457806377988cf814610066578063acacd8ee14610079578063ccb8c1e014610099575b600080fd5b34801561005057600080fd5b5061006461005f3660046105d4565b6100cb565b005b610064610074366004610657565b6102a7565b34801561008557600080fd5b506100646100943660046106c3565b61042e565b3480156100a557600080fd5b506100b96100b43660046106e7565b61052f565b60405190815260200160405180910390f35b8281146100f35760405162461bcd60e51b81526004016100ea90610729565b60405180910390fd5b846000610100848461052f565b604051636eb1769f60e11b815233600482015230602482015290915081906001600160a01b0384169063dd62ed3e90604401602060405180830381865afa15801561014f573d6000803e3d6000fd5b505050506040513d601f19601f820116820180604052508101906101739190610773565b116101c05760405162461bcd60e51b815260206004820152601860248201527f4e65656420417070726f766520455243323020746f6b656e000000000000000060448201526064016100ea565b60005b8581101561029d57826001600160a01b03166323b872dd338989858181106101ed576101ed61078c565b905060200201602081019061020291906106c3565b8888868181106102145761021461078c565b6040516001600160e01b031960e088901b1681526001600160a01b039586166004820152949093166024850152506020909102013560448201526064016020604051808303816000875af1158015610270573d6000803e3d6000fd5b505050506040513d601f19601f8201168201806040525081019061029491906107a2565b506001016101c3565b5050505050505050565b8281146102c65760405162461bcd60e51b81526004016100ea90610729565b60006102d2838361052f565b905080341461031b5760405162461bcd60e51b81526020600482015260156024820152742a3930b739b332b91030b6b7bab73a1032b93937b960591b60448201526064016100ea565b60005b8481101561042657600086868381811061033a5761033a61078c565b905060200201602081019061034f91906106c3565b6001600160a01b031685858481811061036a5761036a61078c565b9050602002013560405160006040518083038185875af1925050503d80600081146103b1576040519150601f19603f3d011682016040523d82523d6000602084013e6103b6565b606091505b505090508061041d578484838181106103d1576103d161078c565b905060200201356000808989868181106103ed576103ed61078c565b905060200201602081019061040291906106c3565b6001600160a01b031681526020810191909152604001600020555b5060010161031e565b505050505050565b336000908152602081905260409020548061048b5760405162461bcd60e51b815260206004820152601a60248201527f596f7520617265206e6f7420696e206661696c6564206c69737400000000000060448201526064016100ea565b33600090815260208190526040808220829055516001600160a01b0384169083908381818185875af1925050503d80600081146104e4576040519150601f19603f3d011682016040523d82523d6000602084013e6104e9565b606091505b505090508061052a5760405162461bcd60e51b815260206004820152600d60248201526c4661696c20776974686472617760981b60448201526064016100ea565b505050565b6000805b828110156105695783838281811061054d5761054d61078c565b905060200201358261055f91906107c4565b9150600101610533565b5092915050565b6001600160a01b038116811461058557600080fd5b50565b60008083601f84011261059a57600080fd5b50813567ffffffffffffffff8111156105b257600080fd5b6020830191508360208260051b85010111156105cd57600080fd5b9250929050565b6000806000806000606086880312156105ec57600080fd5b85356105f781610570565b9450602086013567ffffffffffffffff8082111561061457600080fd5b61062089838a01610588565b9096509450604088013591508082111561063957600080fd5b5061064688828901610588565b969995985093965092949392505050565b6000806000806040858703121561066d57600080fd5b843567ffffffffffffffff8082111561068557600080fd5b61069188838901610588565b909650945060208701359150808211156106aa57600080fd5b506106b787828801610588565b95989497509550505050565b6000602082840312156106d557600080fd5b81356106e081610570565b9392505050565b600080602083850312156106fa57600080fd5b823567ffffffffffffffff81111561071157600080fd5b61071d85828601610588565b90969095509350505050565b6020808252602a908201527f4c656e67746873206f662041646472657373657320616e6420416d6f756e7473604082015269081393d508115455505360b21b606082015260800190565b60006020828403121561078557600080fd5b5051919050565b634e487b7160e01b600052603260045260246000fd5b6000602082840312156107b457600080fd5b815180151581146106e057600080fd5b808201808211156107e557634e487b7160e01b600052601160045260246000fd5b9291505056fea264697066735822122077e9b58fd6f8e702444a3da1b07593388d179fe5653ff957d173e2cd5ebc28ad64736f6c63430008190033","linkReferences":{}},"methodIdentifiers":{"getSum(uint256[])":"ccb8c1e0","multiTransferETH(address[],uint256[])":"77988cf8","multiTransferToken(address,address[],uint256[])":"41ed24a2","withdrawFromFailList(address)":"acacd8ee"},"id":20}